{
  "contractName": "SolnSquareVerifier",
  "abi": [
    {
      "anonymous": false,
      "inputs": [
        {
          "indexed": true,
          "internalType": "address",
          "name": "owner",
          "type": "address"
        },
        {
          "indexed": true,
          "internalType": "address",
          "name": "approved",
          "type": "address"
        },
        {
          "indexed": true,
          "internalType": "uint256",
          "name": "tokenId",
          "type": "uint256"
        }
      ],
      "name": "Approval",
      "type": "event"
    },
    {
      "anonymous": false,
      "inputs": [
        {
          "indexed": true,
          "internalType": "address",
          "name": "owner",
          "type": "address"
        },
        {
          "indexed": true,
          "internalType": "address",
          "name": "operator",
          "type": "address"
        },
        {
          "indexed": false,
          "internalType": "bool",
          "name": "approved",
          "type": "bool"
        }
      ],
      "name": "ApprovalForAll",
      "type": "event"
    },
    {
      "anonymous": false,
      "inputs": [
        {
          "indexed": false,
          "internalType": "address",
          "name": "triggerAddress",
          "type": "address"
        }
      ],
      "name": "Paused",
      "type": "event"
    },
    {
      "anonymous": false,
      "inputs": [
        {
          "indexed": true,
          "internalType": "address",
          "name": "from",
          "type": "address"
        },
        {
          "indexed": true,
          "internalType": "address",
          "name": "to",
          "type": "address"
        },
        {
          "indexed": true,
          "internalType": "uint256",
          "name": "tokenId",
          "type": "uint256"
        }
      ],
      "name": "Transfer",
      "type": "event"
    },
    {
      "anonymous": false,
      "inputs": [
        {
          "indexed": false,
          "internalType": "address",
          "name": "triggerAddress",
          "type": "address"
        }
      ],
      "name": "Unpaused",
      "type": "event"
    },
    {
      "anonymous": false,
      "inputs": [
        {
          "indexed": false,
          "internalType": "address",
          "name": "newOwner",
          "type": "address"
        }
      ],
      "name": "ownerShip",
      "type": "event"
    },
    {
      "anonymous": false,
      "inputs": [],
      "name": "solutionAdded",
      "type": "event"
    },
    {
      "constant": false,
      "inputs": [
        {
          "internalType": "bytes32",
          "name": "_myid",
          "type": "bytes32"
        },
        {
          "internalType": "string",
          "name": "_result",
          "type": "string"
        }
      ],
      "name": "__callback",
      "outputs": [],
      "payable": false,
      "stateMutability": "nonpayable",
      "type": "function"
    },
    {
      "constant": false,
      "inputs": [
        {
          "internalType": "bytes32",
          "name": "_myid",
          "type": "bytes32"
        },
        {
          "internalType": "string",
          "name": "_result",
          "type": "string"
        },
        {
          "internalType": "bytes",
          "name": "_proof",
          "type": "bytes"
        }
      ],
      "name": "__callback",
      "outputs": [],
      "payable": false,
      "stateMutability": "nonpayable",
      "type": "function"
    },
    {
      "constant": false,
      "inputs": [
        {
          "internalType": "address",
          "name": "to",
          "type": "address"
        },
        {
          "internalType": "uint256",
          "name": "tokenId",
          "type": "uint256"
        },
        {
          "internalType": "string",
          "name": "tokenURI",
          "type": "string"
        }
      ],
      "name": "_mint",
      "outputs": [
        {
          "internalType": "bool",
          "name": "",
          "type": "bool"
        }
      ],
      "payable": false,
      "stateMutability": "nonpayable",
      "type": "function"
    },
    {
      "constant": false,
      "inputs": [
        {
          "internalType": "address",
          "name": "to",
          "type": "address"
        },
        {
          "internalType": "uint256",
          "name": "tokenId",
          "type": "uint256"
        }
      ],
      "name": "approve",
      "outputs": [],
      "payable": false,
      "stateMutability": "nonpayable",
      "type": "function"
    },
    {
      "constant": true,
      "inputs": [
        {
          "internalType": "address",
          "name": "owner",
          "type": "address"
        }
      ],
      "name": "balanceOf",
      "outputs": [
        {
          "internalType": "uint256",
          "name": "",
          "type": "uint256"
        }
      ],
      "payable": false,
      "stateMutability": "view",
      "type": "function"
    },
    {
      "constant": true,
      "inputs": [
        {
          "internalType": "uint256",
          "name": "tokenId",
          "type": "uint256"
        }
      ],
      "name": "getApproved",
      "outputs": [
        {
          "internalType": "address",
          "name": "",
          "type": "address"
        }
      ],
      "payable": false,
      "stateMutability": "view",
      "type": "function"
    },
    {
      "constant": true,
      "inputs": [],
      "name": "getBaseTokenURI",
      "outputs": [
        {
          "internalType": "string",
          "name": "",
          "type": "string"
        }
      ],
      "payable": false,
      "stateMutability": "view",
      "type": "function"
    },
    {
      "constant": true,
      "inputs": [],
      "name": "getName",
      "outputs": [
        {
          "internalType": "string",
          "name": "",
          "type": "string"
        }
      ],
      "payable": false,
      "stateMutability": "view",
      "type": "function"
    },
    {
      "constant": true,
      "inputs": [],
      "name": "getOwner",
      "outputs": [
        {
          "internalType": "address",
          "name": "",
          "type": "address"
        }
      ],
      "payable": false,
      "stateMutability": "view",
      "type": "function"
    },
    {
      "constant": true,
      "inputs": [],
      "name": "getSymbol",
      "outputs": [
        {
          "internalType": "string",
          "name": "",
          "type": "string"
        }
      ],
      "payable": false,
      "stateMutability": "view",
      "type": "function"
    },
    {
      "constant": true,
      "inputs": [
        {
          "internalType": "address",
          "name": "owner",
          "type": "address"
        },
        {
          "internalType": "address",
          "name": "operator",
          "type": "address"
        }
      ],
      "name": "isApprovedForAll",
      "outputs": [
        {
          "internalType": "bool",
          "name": "",
          "type": "bool"
        }
      ],
      "payable": false,
      "stateMutability": "view",
      "type": "function"
    },
    {
      "constant": true,
      "inputs": [],
      "name": "isPaused",
      "outputs": [
        {
          "internalType": "bool",
          "name": "",
          "type": "bool"
        }
      ],
      "payable": false,
      "stateMutability": "view",
      "type": "function"
    },
    {
      "constant": true,
      "inputs": [
        {
          "internalType": "uint256",
          "name": "tokenId",
          "type": "uint256"
        }
      ],
      "name": "ownerOf",
      "outputs": [
        {
          "internalType": "address",
          "name": "",
          "type": "address"
        }
      ],
      "payable": false,
      "stateMutability": "view",
      "type": "function"
    },
    {
      "constant": false,
      "inputs": [
        {
          "internalType": "address",
          "name": "from",
          "type": "address"
        },
        {
          "internalType": "address",
          "name": "to",
          "type": "address"
        },
        {
          "internalType": "uint256",
          "name": "tokenId",
          "type": "uint256"
        }
      ],
      "name": "safeTransferFrom",
      "outputs": [],
      "payable": false,
      "stateMutability": "nonpayable",
      "type": "function"
    },
    {
      "constant": false,
      "inputs": [
        {
          "internalType": "address",
          "name": "from",
          "type": "address"
        },
        {
          "internalType": "address",
          "name": "to",
          "type": "address"
        },
        {
          "internalType": "uint256",
          "name": "tokenId",
          "type": "uint256"
        },
        {
          "internalType": "bytes",
          "name": "_data",
          "type": "bytes"
        }
      ],
      "name": "safeTransferFrom",
      "outputs": [],
      "payable": false,
      "stateMutability": "nonpayable",
      "type": "function"
    },
    {
      "constant": false,
      "inputs": [
        {
          "internalType": "address",
          "name": "to",
          "type": "address"
        },
        {
          "internalType": "bool",
          "name": "approved",
          "type": "bool"
        }
      ],
      "name": "setApprovalForAll",
      "outputs": [],
      "payable": false,
      "stateMutability": "nonpayable",
      "type": "function"
    },
    {
      "constant": false,
      "inputs": [
        {
          "internalType": "bool",
          "name": "pausedVar",
          "type": "bool"
        }
      ],
      "name": "setPaused",
      "outputs": [],
      "payable": false,
      "stateMutability": "nonpayable",
      "type": "function"
    },
    {
      "constant": true,
      "inputs": [
        {
          "internalType": "bytes4",
          "name": "interfaceId",
          "type": "bytes4"
        }
      ],
      "name": "supportsInterface",
      "outputs": [
        {
          "internalType": "bool",
          "name": "",
          "type": "bool"
        }
      ],
      "payable": false,
      "stateMutability": "view",
      "type": "function"
    },
    {
      "constant": true,
      "inputs": [
        {
          "internalType": "uint256",
          "name": "index",
          "type": "uint256"
        }
      ],
      "name": "tokenByIndex",
      "outputs": [
        {
          "internalType": "uint256",
          "name": "",
          "type": "uint256"
        }
      ],
      "payable": false,
      "stateMutability": "view",
      "type": "function"
    },
    {
      "constant": true,
      "inputs": [
        {
          "internalType": "address",
          "name": "owner",
          "type": "address"
        },
        {
          "internalType": "uint256",
          "name": "index",
          "type": "uint256"
        }
      ],
      "name": "tokenOfOwnerByIndex",
      "outputs": [
        {
          "internalType": "uint256",
          "name": "",
          "type": "uint256"
        }
      ],
      "payable": false,
      "stateMutability": "view",
      "type": "function"
    },
    {
      "constant": true,
      "inputs": [
        {
          "internalType": "uint256",
          "name": "tokenId",
          "type": "uint256"
        }
      ],
      "name": "tokenURI",
      "outputs": [
        {
          "internalType": "string",
          "name": "",
          "type": "string"
        }
      ],
      "payable": false,
      "stateMutability": "view",
      "type": "function"
    },
    {
      "constant": true,
      "inputs": [],
      "name": "totalSupply",
      "outputs": [
        {
          "internalType": "uint256",
          "name": "",
          "type": "uint256"
        }
      ],
      "payable": false,
      "stateMutability": "view",
      "type": "function"
    },
    {
      "constant": false,
      "inputs": [
        {
          "internalType": "address",
          "name": "from",
          "type": "address"
        },
        {
          "internalType": "address",
          "name": "to",
          "type": "address"
        },
        {
          "internalType": "uint256",
          "name": "tokenId",
          "type": "uint256"
        }
      ],
      "name": "transferFrom",
      "outputs": [],
      "payable": false,
      "stateMutability": "nonpayable",
      "type": "function"
    },
    {
      "constant": false,
      "inputs": [
        {
          "internalType": "address",
          "name": "newOwner",
          "type": "address"
        }
      ],
      "name": "transferOwnership",
      "outputs": [],
      "payable": false,
      "stateMutability": "nonpayable",
      "type": "function"
    },
    {
      "constant": false,
      "inputs": [
        {
          "internalType": "uint256",
          "name": "index",
          "type": "uint256"
        },
        {
          "internalType": "address",
          "name": "newAddress",
          "type": "address"
        }
      ],
      "name": "addSolutions",
      "outputs": [],
      "payable": false,
      "stateMutability": "nonpayable",
      "type": "function"
    },
    {
      "constant": false,
      "inputs": [
        {
          "internalType": "address",
          "name": "to",
          "type": "address"
        },
        {
          "internalType": "uint256",
          "name": "tokenId",
          "type": "uint256"
        },
        {
          "internalType": "string",
          "name": "tokenURI",
          "type": "string"
        },
        {
          "internalType": "uint256",
          "name": "index",
          "type": "uint256"
        }
      ],
      "name": "mintNewNFT",
      "outputs": [],
      "payable": false,
      "stateMutability": "nonpayable",
      "type": "function"
    }
  ],
  "bytecode": "0x60806040526040518060400160405280600a81526020017f73616d706c654e616d65000000000000000000000000000000000000000000008152506040518060400160405280600c81526020017f73616d706c6553796d626f6c00000000000000000000000000000000000000008152506040518060600160405280603f815260200162003441603f9139336000806101000a81548173ffffffffffffffffffffffffffffffffffffffff021916908373ffffffffffffffffffffffffffffffffffffffff1602179055507f9e38ac15fb6f429cb4c1d68a79943e344c4ce37b43debdea3555daa570f5361033604051808273ffffffffffffffffffffffffffffffffffffffff1673ffffffffffffffffffffffffffffffffffffffff16815260200191505060405180910390a160008060146101000a81548160ff0219169083151502179055506200015f6301ffc9a760e01b620001fb60201b60201c565b620001776380ac58cd60e01b620001fb60201b60201c565b6200018f63780e9d6360e01b620001fb60201b60201c565b82600f9080519060200190620001a79291906200029b565b508160109080519060200190620001c09291906200029b565b508060119080519060200190620001d99291906200029b565b50620001f2635b5e139f60e01b620001fb60201b60201c565b5050506200034a565b63ffffffff60e01b817bffffffffffffffffffffffffffffffffffffffffffffffffffffffff191614156200022f57600080fd5b6001806000837bffffffffffffffffffffffffffffffffffffffffffffffffffffffff19167bffffffffffffffffffffffffffffffffffffffffffffffffffffffff1916815260200190815260200160002060006101000a81548160ff02191690831515021790555050565b828054600181600116156101000203166002900490600052602060002090601f016020900481019282601f10620002de57805160ff19168380011785556200030f565b828001600101855582156200030f579182015b828111156200030e578251825591602001919060010190620002f1565b5b5090506200031e919062000322565b5090565b6200034791905b808211156200034357600081600090555060010162000329565b5090565b90565b6130e7806200035a6000396000f3fe608060405234801561001057600080fd5b506004361061018e5760003560e01c80636352211e116100de578063b88d4fde11610097578063d2120c5011610071578063d2120c5014610c57578063d3af136814610ca5578063e985e9c514610d94578063f2fde38b14610e105761018e565b8063b88d4fde14610a28578063bdc32be014610b2d578063c87b56dd14610bb05761018e565b80636352211e146107a957806370a0823114610817578063893d20e81461086f578063a22cb465146108b9578063a987d4c614610909578063b187bd2614610a065761018e565b806318160ddd1161014b5780632f745c59116101255780632f745c591461053b57806338bbfa501461059d57806342842e0e146106f95780634f6ccce7146107675761018e565b806318160ddd146103ea57806323b872dd1461040857806327dc297e146104765761018e565b806301ffc9a714610193578063081812fc146101f8578063095ea7b31461026657806315070401146102b457806316c38b3c1461033757806317d7de7c14610367575b600080fd5b6101de600480360360208110156101a957600080fd5b8101908080357bffffffffffffffffffffffffffffffffffffffffffffffffffffffff19169060200190929190505050610e54565b604051808215151515815260200191505060405180910390f35b6102246004803603602081101561020e57600080fd5b8101908080359060200190929190505050610ebc565b604051808273ffffffffffffffffffffffffffffffffffffffff1673ffffffffffffffffffffffffffffffffffffffff16815260200191505060405180910390f35b6102b26004803603604081101561027c57600080fd5b81019080803573ffffffffffffffffffffffffffffffffffffffff16906020019092919080359060200190929190505050610f74565b005b6102bc611113565b6040518080602001828103825283818151815260200191508051906020019080838360005b838110156102fc5780820151818401526020810190506102e1565b50505050905090810190601f1680156103295780820380516001836020036101000a031916815260200191505b509250505060405180910390f35b6103656004803603602081101561034d57600080fd5b810190808035151590602001909291905050506111b5565b005b61036f611277565b6040518080602001828103825283818151815260200191508051906020019080838360005b838110156103af578082015181840152602081019050610394565b50505050905090810190601f1680156103dc5780820380516001836020036101000a031916815260200191505b509250505060405180910390f35b6103f2611319565b6040518082815260200191505060405180910390f35b6104746004803603606081101561041e57600080fd5b81019080803573ffffffffffffffffffffffffffffffffffffffff169060200190929190803573ffffffffffffffffffffffffffffffffffffffff16906020019092919080359060200190929190505050611326565b005b6105396004803603604081101561048c57600080fd5b8101908080359060200190929190803590602001906401000000008111156104b357600080fd5b8201836020820111156104c557600080fd5b803590602001918460018302840111640100000000831117156104e757600080fd5b91908080601f016020809104026020016040519081016040528093929190818152602001838380828437600081840152601f19601f820116905080830192505050505050509192919290505050611349565b005b6105876004803603604081101561055157600080fd5b81019080803573ffffffffffffffffffffffffffffffffffffffff1690602001909291908035906020019092919050505061138c565b6040518082815260200191505060405180910390f35b6106f7600480360360608110156105b357600080fd5b8101908080359060200190929190803590602001906401000000008111156105da57600080fd5b8201836020820111156105ec57600080fd5b8035906020019184600183028401116401000000008311171561060e57600080fd5b91908080601f016020809104026020016040519081016040528093929190818152602001838380828437600081840152601f19601f8201169050808301925050505050505091929192908035906020019064010000000081111561067157600080fd5b82018360208201111561068357600080fd5b803590602001918460018302840111640100000000831117156106a557600080fd5b91908080601f016020809104026020016040519081016040528093929190818152602001838380828437600081840152601f19601f8201169050808301925050505050505091929192905050506113ff565b005b6107656004803603606081101561070f57600080fd5b81019080803573ffffffffffffffffffffffffffffffffffffffff169060200190929190803573ffffffffffffffffffffffffffffffffffffffff16906020019092919080359060200190929190505050611404565b005b6107936004803603602081101561077d57600080fd5b8101908080359060200190929190505050611424565b6040518082815260200191505060405180910390f35b6107d5600480360360208110156107bf57600080fd5b8101908080359060200190929190505050611458565b604051808273ffffffffffffffffffffffffffffffffffffffff1673ffffffffffffffffffffffffffffffffffffffff16815260200191505060405180910390f35b6108596004803603602081101561082d57600080fd5b81019080803573ffffffffffffffffffffffffffffffffffffffff16906020019092919050505061154d565b6040518082815260200191505060405180910390f35b61087761163f565b604051808273ffffffffffffffffffffffffffffffffffffffff1673ffffffffffffffffffffffffffffffffffffffff16815260200191505060405180910390f35b610907600480360360408110156108cf57600080fd5b81019080803573ffffffffffffffffffffffffffffffffffffffff169060200190929190803515159060200190929190505050611668565b005b6109ec6004803603606081101561091f57600080fd5b81019080803573ffffffffffffffffffffffffffffffffffffffff169060200190929190803590602001909291908035906020019064010000000081111561096657600080fd5b82018360208201111561097857600080fd5b8035906020019184600183028401116401000000008311171561099a57600080fd5b91908080601f016020809104026020016040519081016040528093929190818152602001838380828437600081840152601f19601f8201169050808301925050505050505091929192905050506117a2565b604051808215151515815260200191505060405180910390f35b610a0e611867565b604051808215151515815260200191505060405180910390f35b610b2b60048036036080811015610a3e57600080fd5b81019080803573ffffffffffffffffffffffffffffffffffffffff169060200190929190803573ffffffffffffffffffffffffffffffffffffffff1690602001909291908035906020019092919080359060200190640100000000811115610aa557600080fd5b820183602082011115610ab757600080fd5b80359060200191846001830284011164010000000083111715610ad957600080fd5b91908080601f016020809104026020016040519081016040528093929190818152602001838380828437600081840152601f19601f82011690508083019250505050505050919291929050505061187d565b005b610b356118a3565b6040518080602001828103825283818151815260200191508051906020019080838360005b83811015610b75578082015181840152602081019050610b5a565b50505050905090810190601f168015610ba25780820380516001836020036101000a031916815260200191505b509250505060405180910390f35b610bdc60048036036020811015610bc657600080fd5b8101908080359060200190929190505050611945565b6040518080602001828103825283818151815260200191508051906020019080838360005b83811015610c1c578082015181840152602081019050610c01565b50505050905090810190601f168015610c495780820380516001836020036101000a031916815260200191505b509250505060405180910390f35b610ca360048036036040811015610c6d57600080fd5b8101908080359060200190929190803573ffffffffffffffffffffffffffffffffffffffff169060200190929190505050611a0c565b005b610d9260048036036080811015610cbb57600080fd5b81019080803573ffffffffffffffffffffffffffffffffffffffff1690602001909291908035906020019092919080359060200190640100000000811115610d0257600080fd5b820183602082011115610d1457600080fd5b80359060200191846001830284011164010000000083111715610d3657600080fd5b91908080601f016020809104026020016040519081016040528093929190818152602001838380828437600081840152601f19601f82011690508083019250505050505050919291929080359060200190929190505050611b06565b005b610df660048036036040811015610daa57600080fd5b81019080803573ffffffffffffffffffffffffffffffffffffffff169060200190929190803573ffffffffffffffffffffffffffffffffffffffff169060200190929190505050611b22565b604051808215151515815260200191505060405180910390f35b610e5260048036036020811015610e2657600080fd5b81019080803573ffffffffffffffffffffffffffffffffffffffff169060200190929190505050611bb6565b005b600060016000837bffffffffffffffffffffffffffffffffffffffffffffffffffffffff19167bffffffffffffffffffffffffffffffffffffffffffffffffffffffff1916815260200190815260200160002060009054906101000a900460ff169050919050565b6000610ec782611d36565b610f39576040517f08c379a000000000000000000000000000000000000000000000000000000000815260040180806020018281038252601e8152602001807f54686520676976656e20746f6b656e20646f6573206e6f74206578697374000081525060200191505060405180910390fd5b6003600083815260200190815260200160002060009054906101000a900473ffffffffffffffffffffffffffffffffffffffff169050919050565b610f7d81611458565b73ffffffffffffffffffffffffffffffffffffffff168273ffffffffffffffffffffffffffffffffffffffff161415611001576040517f08c379a000000000000000000000000000000000000000000000000000000000815260040180806020018281038252603981526020018061307a6039913960400191505060405180910390fd5b3373ffffffffffffffffffffffffffffffffffffffff1661102182611458565b73ffffffffffffffffffffffffffffffffffffffff161480611051575061105061104a82611458565b33611b22565b5b61105a57600080fd5b816003600083815260200190815260200160002060006101000a81548173ffffffffffffffffffffffffffffffffffffffff021916908373ffffffffffffffffffffffffffffffffffffffff160217905550808273ffffffffffffffffffffffffffffffffffffffff166110cd83611458565b73ffffffffffffffffffffffffffffffffffffffff167f8c5be1e5ebec7d5bd14f71427d1e84f3dd0314c0f7b2291e5b200ac8c7c3b92560405160405180910390a45050565b606060108054600181600116156101000203166002900480601f0160208091040260200160405190810160405280929190818152602001828054600181600116156101000203166002900480156111ab5780601f10611180576101008083540402835291602001916111ab565b820191906000526020600020905b81548152906001019060200180831161118e57829003601f168201915b5050505050905090565b6000809054906101000a900473ffffffffffffffffffffffffffffffffffffffff1673ffffffffffffffffffffffffffffffffffffffff163373ffffffffffffffffffffffffffffffffffffffff161461125a576040517f08c379a000000000000000000000000000000000000000000000000000000000815260040180806020018281038252603281526020018061300e6032913960400191505060405180910390fd5b80600060146101000a81548160ff02191690831515021790555050565b6060600f8054600181600116156101000203166002900480601f01602080910402602001604051908101604052809291908181526020018280546001816001161561010002031660029004801561130f5780601f106112e45761010080835404028352916020019161130f565b820191906000526020600020905b8154815290600101906020018083116112f257829003601f168201915b5050505050905090565b6000600880549050905090565b6113303382611da8565b61133957600080fd5b611344838383611e3d565b505050565b611388828260006040519080825280601f01601f1916602001820160405280156113825781602001600182028038833980820191505090505b506113ff565b5050565b60006113978361154d565b82106113a257600080fd5b600660008473ffffffffffffffffffffffffffffffffffffffff1673ffffffffffffffffffffffffffffffffffffffff16815260200190815260200160002082815481106113ec57fe5b9060005260206000200154905092915050565b505050565b61141f8383836040518060200160405280600081525061187d565b505050565b600061142e611319565b821061143957600080fd5b6008828154811061144657fe5b90600052602060002001549050919050565b60008073ffffffffffffffffffffffffffffffffffffffff166002600084815260200190815260200160002060009054906101000a900473ffffffffffffffffffffffffffffffffffffffff1673ffffffffffffffffffffffffffffffffffffffff161415611512576040517f08c379a0000000000000000000000000000000000000000000000000000000008152600401808060200182810382526027815260200180612f7d6027913960400191505060405180910390fd5b6002600083815260200190815260200160002060009054906101000a900473ffffffffffffffffffffffffffffffffffffffff169050919050565b60008073ffffffffffffffffffffffffffffffffffffffff168273ffffffffffffffffffffffffffffffffffffffff1614156115f1576040517f08c379a00000000000000000000000000000000000000000000000000000000081526004018080602001828103825260158152602001807f496e76616c6964206f776e65722061646472657373000000000000000000000081525060200191505060405180910390fd5b611638600460008473ffffffffffffffffffffffffffffffffffffffff1673ffffffffffffffffffffffffffffffffffffffff168152602001908152602001600020611e61565b9050919050565b60008060009054906101000a900473ffffffffffffffffffffffffffffffffffffffff16905090565b3373ffffffffffffffffffffffffffffffffffffffff168273ffffffffffffffffffffffffffffffffffffffff1614156116a157600080fd5b80600560003373ffffffffffffffffffffffffffffffffffffffff1673ffffffffffffffffffffffffffffffffffffffff16815260200190815260200160002060008473ffffffffffffffffffffffffffffffffffffffff1673ffffffffffffffffffffffffffffffffffffffff16815260200190815260200160002060006101000a81548160ff0219169083151502179055508173ffffffffffffffffffffffffffffffffffffffff163373ffffffffffffffffffffffffffffffffffffffff167f17307eab39ab6107e8899845ad3d59bd9653f200f220920489ca2b5937696c3183604051808215151515815260200191505060405180910390a35050565b60008060009054906101000a900473ffffffffffffffffffffffffffffffffffffffff1673ffffffffffffffffffffffffffffffffffffffff163373ffffffffffffffffffffffffffffffffffffffff1614611849576040517f08c379a000000000000000000000000000000000000000000000000000000000815260040180806020018281038252603281526020018061300e6032913960400191505060405180910390fd5b6118538484611e6f565b61185c83611e90565b600190509392505050565b60008060149054906101000a900460ff16905090565b611888848484611326565b61189484848484611f4e565b61189d57600080fd5b50505050565b606060118054600181600116156101000203166002900480601f01602080910402602001604051908101604052809291908181526020018280546001816001161561010002031660029004801561193b5780601f106119105761010080835404028352916020019161193b565b820191906000526020600020905b81548152906001019060200180831161191e57829003601f168201915b5050505050905090565b606061195082611d36565b61195957600080fd5b601260008381526020019081526020016000208054600181600116156101000203166002900480601f016020809104026020016040519081016040528092919081815260200182805460018160011615610100020316600290048015611a005780601f106119d557610100808354040283529160200191611a00565b820191906000526020600020905b8154815290600101906020018083116119e357829003601f168201915b50505050509050919050565b611a14612e7b565b60405180604001604052808481526020018373ffffffffffffffffffffffffffffffffffffffff16815250905080601360008473ffffffffffffffffffffffffffffffffffffffff1673ffffffffffffffffffffffffffffffffffffffff1681526020019081526020016000206000820151816000015560208201518160010160006101000a81548173ffffffffffffffffffffffffffffffffffffffff021916908373ffffffffffffffffffffffffffffffffffffffff1602179055509050507f515e6f06756d8ff49c0a3b97530a4e50e728824dc7e4878408a433a3cd258c5260405160405180910390a1505050565b611b108185611a0c565b611b1b8484846117a2565b5050505050565b6000600560008473ffffffffffffffffffffffffffffffffffffffff1673ffffffffffffffffffffffffffffffffffffffff16815260200190815260200160002060008373ffffffffffffffffffffffffffffffffffffffff1673ffffffffffffffffffffffffffffffffffffffff16815260200190815260200160002060009054906101000a900460ff16905092915050565b6000809054906101000a900473ffffffffffffffffffffffffffffffffffffffff1673ffffffffffffffffffffffffffffffffffffffff163373ffffffffffffffffffffffffffffffffffffffff1614611c5b576040517f08c379a000000000000000000000000000000000000000000000000000000000815260040180806020018281038252603281526020018061300e6032913960400191505060405180910390fd5b600073ffffffffffffffffffffffffffffffffffffffff168173ffffffffffffffffffffffffffffffffffffffff1614611d3357806000806101000a81548173ffffffffffffffffffffffffffffffffffffffff021916908373ffffffffffffffffffffffffffffffffffffffff1602179055507f9e38ac15fb6f429cb4c1d68a79943e344c4ce37b43debdea3555daa570f5361081604051808273ffffffffffffffffffffffffffffffffffffffff1673ffffffffffffffffffffffffffffffffffffffff16815260200191505060405180910390a15b50565b6000806002600084815260200190815260200160002060009054906101000a900473ffffffffffffffffffffffffffffffffffffffff169050600073ffffffffffffffffffffffffffffffffffffffff168173ffffffffffffffffffffffffffffffffffffffff161415915050919050565b600080611db483611458565b90508073ffffffffffffffffffffffffffffffffffffffff168473ffffffffffffffffffffffffffffffffffffffff161480611e2357508373ffffffffffffffffffffffffffffffffffffffff16611e0b84610ebc565b73ffffffffffffffffffffffffffffffffffffffff16145b80611e345750611e338185611b22565b5b91505092915050565b611e48838383612137565b611e5283826123bd565b611e5c828261255b565b505050565b600081600001549050919050565b611e798282612622565b611e83828261255b565b611e8c816127b0565b5050565b611e9981611d36565b611f0b576040517f08c379a00000000000000000000000000000000000000000000000000000000081526004018080602001828103825260208152602001807f54686520676976656e20746f6b656e496420646f6573206e6f7420657869737481525060200191505060405180910390fd5b611f24611f166118a3565b611f1f836127fc565b612929565b601260008381526020019081526020016000209080519060200190611f4a929190612eab565b5050565b6000611f6f8473ffffffffffffffffffffffffffffffffffffffff1661296d565b611f7c576001905061212f565b60008473ffffffffffffffffffffffffffffffffffffffff1663150b7a02338887876040518563ffffffff1660e01b8152600401808573ffffffffffffffffffffffffffffffffffffffff1673ffffffffffffffffffffffffffffffffffffffff1681526020018473ffffffffffffffffffffffffffffffffffffffff1673ffffffffffffffffffffffffffffffffffffffff16815260200183815260200180602001828103825283818151815260200191508051906020019080838360005b8381101561205757808201518184015260208101905061203c565b50505050905090810190601f1680156120845780820380516001836020036101000a031916815260200191505b5095505050505050602060405180830381600087803b1580156120a657600080fd5b505af11580156120ba573d6000803e3d6000fd5b505050506040513d60208110156120d057600080fd5b8101908080519060200190929190505050905063150b7a0260e01b7bffffffffffffffffffffffffffffffffffffffffffffffffffffffff1916817bffffffffffffffffffffffffffffffffffffffffffffffffffffffff1916149150505b949350505050565b6002600082815260200190815260200160002060009054906101000a900473ffffffffffffffffffffffffffffffffffffffff1673ffffffffffffffffffffffffffffffffffffffff168373ffffffffffffffffffffffffffffffffffffffff16146121ee576040517f08c379a0000000000000000000000000000000000000000000000000000000008152600401808060200182810382526038815260200180612fd66038913960400191505060405180910390fd5b600073ffffffffffffffffffffffffffffffffffffffff168273ffffffffffffffffffffffffffffffffffffffff161415612274576040517f08c379a0000000000000000000000000000000000000000000000000000000008152600401808060200182810382526032815260200180612fa46032913960400191505060405180910390fd5b61227d816129b8565b6122c4600460008573ffffffffffffffffffffffffffffffffffffffff1673ffffffffffffffffffffffffffffffffffffffff168152602001908152602001600020612a76565b61230b600460008473ffffffffffffffffffffffffffffffffffffffff1673ffffffffffffffffffffffffffffffffffffffff168152602001908152602001600020612a99565b816002600083815260200190815260200160002060006101000a81548173ffffffffffffffffffffffffffffffffffffffff021916908373ffffffffffffffffffffffffffffffffffffffff160217905550808273ffffffffffffffffffffffffffffffffffffffff168473ffffffffffffffffffffffffffffffffffffffff167fddf252ad1be2c89b69c2b068fc378daa952ba7f163c4a11628f55a4df523b3ef60405160405180910390a4505050565b60006124156001600660008673ffffffffffffffffffffffffffffffffffffffff1673ffffffffffffffffffffffffffffffffffffffff16815260200190815260200160002080549050612aaf90919063ffffffff16565b9050600060076000848152602001908152602001600020549050818114612502576000600660008673ffffffffffffffffffffffffffffffffffffffff1673ffffffffffffffffffffffffffffffffffffffff168152602001908152602001600020838154811061248257fe5b9060005260206000200154905080600660008773ffffffffffffffffffffffffffffffffffffffff1673ffffffffffffffffffffffffffffffffffffffff16815260200190815260200160002083815481106124da57fe5b9060005260206000200181905550816007600083815260200190815260200160002081905550505b600660008573ffffffffffffffffffffffffffffffffffffffff1673ffffffffffffffffffffffffffffffffffffffff1681526020019081526020016000208054809190600190036125549190612f2b565b5050505050565b600660008373ffffffffffffffffffffffffffffffffffffffff1673ffffffffffffffffffffffffffffffffffffffff168152602001908152602001600020805490506007600083815260200190815260200160002081905550600660008373ffffffffffffffffffffffffffffffffffffffff1673ffffffffffffffffffffffffffffffffffffffff1681526020019081526020016000208190806001815401808255809150509060018203906000526020600020016000909192909190915055505050565b61262b81611d36565b806126625750600073ffffffffffffffffffffffffffffffffffffffff168273ffffffffffffffffffffffffffffffffffffffff16145b156126b8576040517f08c379a000000000000000000000000000000000000000000000000000000000815260040180806020018281038252603a815260200180613040603a913960400191505060405180910390fd5b816002600083815260200190815260200160002060006101000a81548173ffffffffffffffffffffffffffffffffffffffff021916908373ffffffffffffffffffffffffffffffffffffffff160217905550612751600460008473ffffffffffffffffffffffffffffffffffffffff1673ffffffffffffffffffffffffffffffffffffffff168152602001908152602001600020612a99565b808273ffffffffffffffffffffffffffffffffffffffff163373ffffffffffffffffffffffffffffffffffffffff167fddf252ad1be2c89b69c2b068fc378daa952ba7f163c4a11628f55a4df523b3ef60405160405180910390a45050565b6008805490506009600083815260200190815260200160002081905550600881908060018154018082558091505090600182039060005260206000200160009091929091909150555050565b60606000821415612844576040518060400160405280600181526020017f30000000000000000000000000000000000000000000000000000000000000008152509050612924565b600082905060005b6000821461286e578080600101915050600a828161286657fe5b04915061284c565b6060816040519080825280601f01601f1916602001820160405280156128a35781602001600182028038833980820191505090505b50905060006001830390505b6000861461291c57600a86816128c157fe5b0660300160f81b828280600190039350815181106128db57fe5b60200101907effffffffffffffffffffffffffffffffffffffffffffffffffffffffffffff1916908160001a905350600a868161291457fe5b0495506128af565b819450505050505b919050565b60606129658383604051806020016040528060008152506040518060200160405280600081525060405180602001604052806000815250612af9565b905092915050565b60008060007fc5d2460186f7233c927e7db2dcc703c0e500b653ca82273b7bfad8045d85a47060001b9050833f91508082141580156129af57506000801b8214155b92505050919050565b600073ffffffffffffffffffffffffffffffffffffffff166003600083815260200190815260200160002060009054906101000a900473ffffffffffffffffffffffffffffffffffffffff1673ffffffffffffffffffffffffffffffffffffffff1614612a735760006003600083815260200190815260200160002060006101000a81548173ffffffffffffffffffffffffffffffffffffffff021916908373ffffffffffffffffffffffffffffffffffffffff1602179055505b50565b612a8e60018260000154612aaf90919063ffffffff16565b816000018190555050565b6001816000016000828254019250508190555050565b6000612af183836040518060400160405280601e81526020017f536166654d6174683a207375627472616374696f6e206f766572666c6f770000815250612dbb565b905092915050565b6060808690506060869050606086905060608690506060869050606081518351855187518951010101016040519080825280601f01601f191660200182016040528015612b555781602001600182028038833980820191505090505b509050606081905060008090506000809050600090505b8851811015612bda57888181518110612b8157fe5b602001015160f81c60f81b838380600101945081518110612b9e57fe5b60200101907effffffffffffffffffffffffffffffffffffffffffffffffffffffffffffff1916908160001a9053508080600101915050612b6c565b600090505b8751811015612c4d57878181518110612bf457fe5b602001015160f81c60f81b838380600101945081518110612c1157fe5b60200101907effffffffffffffffffffffffffffffffffffffffffffffffffffffffffffff1916908160001a9053508080600101915050612bdf565b600090505b8651811015612cc057868181518110612c6757fe5b602001015160f81c60f81b838380600101945081518110612c8457fe5b60200101907effffffffffffffffffffffffffffffffffffffffffffffffffffffffffffff1916908160001a9053508080600101915050612c52565b600090505b8551811015612d3357858181518110612cda57fe5b602001015160f81c60f81b838380600101945081518110612cf757fe5b60200101907effffffffffffffffffffffffffffffffffffffffffffffffffffffffffffff1916908160001a9053508080600101915050612cc5565b600090505b8451811015612da657848181518110612d4d57fe5b602001015160f81c60f81b838380600101945081518110612d6a57fe5b60200101907effffffffffffffffffffffffffffffffffffffffffffffffffffffffffffff1916908160001a9053508080600101915050612d38565b82995050505050505050505095945050505050565b6000838311158290612e68576040517f08c379a00000000000000000000000000000000000000000000000000000000081526004018080602001828103825283818151815260200191508051906020019080838360005b83811015612e2d578082015181840152602081019050612e12565b50505050905090810190601f168015612e5a5780820380516001836020036101000a031916815260200191505b509250505060405180910390fd5b5060008385039050809150509392505050565b604051806040016040528060008152602001600073ffffffffffffffffffffffffffffffffffffffff1681525090565b828054600181600116156101000203166002900490600052602060002090601f016020900481019282601f10612eec57805160ff1916838001178555612f1a565b82800160010185558215612f1a579182015b82811115612f19578251825591602001919060010190612efe565b5b509050612f279190612f57565b5090565b815481835581811115612f5257818360005260206000209182019101612f519190612f57565b5b505050565b612f7991905b80821115612f75576000816000905550600101612f5d565b5090565b9056fe5468657265206973206e6f206f776e657220666f722074686520676976656e20746f6b656e4964526571757269657320746f6b656e20746f206265207472616e73666572656420746f20612076616c6964206164647265737352657175697265732066726f6d206164647265737320746f20626520746865206f776e6572206f662074686520676976656e20746f6b656e4572726f722e2e2e6f6e6c7920746865206f776e65722063616e2075736520746869732066756e6374696f6e616c6974792e54686520746f6b656e496420616c726561647920657869737473206f722074686520676976656e206164647265737320697320696e76616c696454686520746f2061646472657373206973207468652063757272656e74206f776e657220666f722074686520676976656e20746f6b656e4964a265627a7a72315820da8294b0cb336da8a1e224f0f6eb4dfc49afc724759c71bd5c36bc7578d48cef64736f6c6343000510003268747470733a2f2f73332d75732d776573742d322e616d617a6f6e6177732e636f6d2f756461636974792d626c6f636b636861696e2f63617073746f6e652f",
  "source": "pragma solidity >=0.4.21 <0.6.0;\nimport './ERC721Mintable.sol';\n\n// TODO define a contract call to the zokrates generated solidity contract <Verifier> or <renamedVerifier>\n//contract Verifier.sol\n\n// TODO define another contract named SolnSquareVerifier that inherits from your ERC721Mintable class\ncontract SolnSquareVerifier is CustomERC721Token {\n\n    // TODO define a solutions struct that can hold an index & an address\n    struct solutions {\n        uint256 _index;\n        address _address;\n    }\n\n    // TODO define an array of the above struct\n    //solutions[] solArray;\n\n    // TODO define a mapping to store unique solutions submitted\n    mapping (address => solutions) uniqSolutions;\n\n    // TODO Create an event to emit when a solution is added\n    event solutionAdded();\n\n\n    // TODO Create a function to add the solutions to the array and emit the event\n    function addSolutions(uint256 index, address newAddress) public {\n        solutions memory newStruct = solutions(index, newAddress);\n        uniqSolutions[newAddress] = newStruct;\n        emit solutionAdded();\n    }\n\n    // TODO Create a function to mint new NFT only after the solution has been verified\n    //  - make sure the solution is unique (has not been used before)\n    //  - make sure you handle metadata as well as tokenSuplly\n    function mintNewNFT(address to, uint256 tokenId, string memory tokenURI, uint256 index) public{\n        addSolutions(index, to);\n        super._mint(to, tokenId, tokenURI);\n    }\n\n}\n\n\n\n\n\n\n\n\n\n\n\n\n\n\n\n\n\n\n\n\n\n\n\n\n\n\n",
  "sourcePath": "/Users/peyton/Documents/Nanodegrees/BlockchainDev/blockchain-developer-nanodegree/Blockchain-Capstone/eth-contracts/contracts/SolnSquareVerifier.sol",
  "compiler": {
    "name": "solc",
    "version": "0.5.16+commit.9c3226ce.Emscripten.clang"
  },
  "schemaVersion": "3.0.23",
  "updatedAt": "2020-03-15T23:40:27.531Z",
  "devdoc": {
    "methods": {
      "isApprovedForAll(address,address)": {
        "details": "Tells whether an operator is approved by a given owner",
        "params": {
          "operator": "operator address which you want to query the approval of",
          "owner": "owner address which you want to query the approval of"
        },
        "return": "bool whether the given operator is approved by the given owner"
      },
      "setApprovalForAll(address,bool)": {
        "details": "Sets or unsets the approval of a given operator An operator is allowed to transfer all tokens of the sender on their behalf",
        "params": {
          "approved": "representing the status of the approval to be set",
          "to": "operator address to set the approval"
        }
      },
      "supportsInterface(bytes4)": {
        "details": "implement supportsInterface(bytes4) using a lookup table"
      },
      "tokenByIndex(uint256)": {
        "details": "Gets the token ID at a given index of all the tokens in this contract Reverts if the index is greater or equal to the total number of tokens",
        "params": {
          "index": "uint256 representing the index to be accessed of the tokens list"
        },
        "return": "uint256 token ID at the given index of the tokens list"
      },
      "tokenOfOwnerByIndex(address,uint256)": {
        "details": "Gets the token ID at a given index of the tokens list of the requested owner",
        "params": {
          "index": "uint256 representing the index to be accessed of the requested tokens list",
          "owner": "address owning the tokens list to be accessed"
        },
        "return": "uint256 token ID at the given index of the tokens list owned by the requested address"
      },
      "totalSupply()": {
        "details": "Gets the total amount of tokens stored by the contract",
        "return": "uint256 representing the total amount of tokens"
      }
    }
  },
  "userdoc": {
    "methods": {}
  }
}