{
  "contractName": "SolnSquareVerifier",
  "abi": [
    {
      "inputs": [
        {
          "internalType": "string",
          "name": "name",
          "type": "string"
        },
        {
          "internalType": "string",
          "name": "symbol",
          "type": "string"
        }
      ],
      "payable": false,
      "stateMutability": "nonpayable",
      "type": "constructor"
    },
    {
      "anonymous": false,
      "inputs": [
        {
          "indexed": true,
          "internalType": "address",
          "name": "owner",
          "type": "address"
        },
        {
          "indexed": true,
          "internalType": "address",
          "name": "approved",
          "type": "address"
        },
        {
          "indexed": true,
          "internalType": "uint256",
          "name": "tokenId",
          "type": "uint256"
        }
      ],
      "name": "Approval",
      "type": "event"
    },
    {
      "anonymous": false,
      "inputs": [
        {
          "indexed": true,
          "internalType": "address",
          "name": "owner",
          "type": "address"
        },
        {
          "indexed": true,
          "internalType": "address",
          "name": "operator",
          "type": "address"
        },
        {
          "indexed": false,
          "internalType": "bool",
          "name": "approved",
          "type": "bool"
        }
      ],
      "name": "ApprovalForAll",
      "type": "event"
    },
    {
      "anonymous": false,
      "inputs": [
        {
          "indexed": false,
          "internalType": "address",
          "name": "triggerAddress",
          "type": "address"
        }
      ],
      "name": "Paused",
      "type": "event"
    },
    {
      "anonymous": false,
      "inputs": [
        {
          "indexed": true,
          "internalType": "address",
          "name": "from",
          "type": "address"
        },
        {
          "indexed": true,
          "internalType": "address",
          "name": "to",
          "type": "address"
        },
        {
          "indexed": true,
          "internalType": "uint256",
          "name": "tokenId",
          "type": "uint256"
        }
      ],
      "name": "Transfer",
      "type": "event"
    },
    {
      "anonymous": false,
      "inputs": [
        {
          "indexed": false,
          "internalType": "address",
          "name": "triggerAddress",
          "type": "address"
        }
      ],
      "name": "Unpaused",
      "type": "event"
    },
    {
      "anonymous": false,
      "inputs": [
        {
          "indexed": false,
          "internalType": "string",
          "name": "s",
          "type": "string"
        }
      ],
      "name": "Verified",
      "type": "event"
    },
    {
      "anonymous": false,
      "inputs": [
        {
          "indexed": false,
          "internalType": "address",
          "name": "newOwner",
          "type": "address"
        }
      ],
      "name": "ownerShip",
      "type": "event"
    },
    {
      "anonymous": false,
      "inputs": [],
      "name": "solutionAdded",
      "type": "event"
    },
    {
      "constant": false,
      "inputs": [
        {
          "internalType": "bytes32",
          "name": "_myid",
          "type": "bytes32"
        },
        {
          "internalType": "string",
          "name": "_result",
          "type": "string"
        }
      ],
      "name": "__callback",
      "outputs": [],
      "payable": false,
      "stateMutability": "nonpayable",
      "type": "function"
    },
    {
      "constant": false,
      "inputs": [
        {
          "internalType": "bytes32",
          "name": "_myid",
          "type": "bytes32"
        },
        {
          "internalType": "string",
          "name": "_result",
          "type": "string"
        },
        {
          "internalType": "bytes",
          "name": "_proof",
          "type": "bytes"
        }
      ],
      "name": "__callback",
      "outputs": [],
      "payable": false,
      "stateMutability": "nonpayable",
      "type": "function"
    },
    {
      "constant": false,
      "inputs": [
        {
          "internalType": "address",
          "name": "to",
          "type": "address"
        },
        {
          "internalType": "uint256",
          "name": "tokenId",
          "type": "uint256"
        },
        {
          "internalType": "string",
          "name": "tokenURI",
          "type": "string"
        }
      ],
      "name": "_mint",
      "outputs": [
        {
          "internalType": "bool",
          "name": "",
          "type": "bool"
        }
      ],
      "payable": false,
      "stateMutability": "nonpayable",
      "type": "function"
    },
    {
      "constant": false,
      "inputs": [
        {
          "internalType": "address",
          "name": "to",
          "type": "address"
        },
        {
          "internalType": "uint256",
          "name": "tokenId",
          "type": "uint256"
        }
      ],
      "name": "approve",
      "outputs": [],
      "payable": false,
      "stateMutability": "nonpayable",
      "type": "function"
    },
    {
      "constant": true,
      "inputs": [
        {
          "internalType": "address",
          "name": "owner",
          "type": "address"
        }
      ],
      "name": "balanceOf",
      "outputs": [
        {
          "internalType": "uint256",
          "name": "",
          "type": "uint256"
        }
      ],
      "payable": false,
      "stateMutability": "view",
      "type": "function"
    },
    {
      "constant": true,
      "inputs": [
        {
          "internalType": "uint256",
          "name": "tokenId",
          "type": "uint256"
        }
      ],
      "name": "getApproved",
      "outputs": [
        {
          "internalType": "address",
          "name": "",
          "type": "address"
        }
      ],
      "payable": false,
      "stateMutability": "view",
      "type": "function"
    },
    {
      "constant": true,
      "inputs": [],
      "name": "getBaseTokenURI",
      "outputs": [
        {
          "internalType": "string",
          "name": "",
          "type": "string"
        }
      ],
      "payable": false,
      "stateMutability": "view",
      "type": "function"
    },
    {
      "constant": true,
      "inputs": [],
      "name": "getName",
      "outputs": [
        {
          "internalType": "string",
          "name": "",
          "type": "string"
        }
      ],
      "payable": false,
      "stateMutability": "view",
      "type": "function"
    },
    {
      "constant": true,
      "inputs": [],
      "name": "getOwner",
      "outputs": [
        {
          "internalType": "address",
          "name": "",
          "type": "address"
        }
      ],
      "payable": false,
      "stateMutability": "view",
      "type": "function"
    },
    {
      "constant": true,
      "inputs": [],
      "name": "getSymbol",
      "outputs": [
        {
          "internalType": "string",
          "name": "",
          "type": "string"
        }
      ],
      "payable": false,
      "stateMutability": "view",
      "type": "function"
    },
    {
      "constant": true,
      "inputs": [
        {
          "internalType": "address",
          "name": "owner",
          "type": "address"
        },
        {
          "internalType": "address",
          "name": "operator",
          "type": "address"
        }
      ],
      "name": "isApprovedForAll",
      "outputs": [
        {
          "internalType": "bool",
          "name": "",
          "type": "bool"
        }
      ],
      "payable": false,
      "stateMutability": "view",
      "type": "function"
    },
    {
      "constant": true,
      "inputs": [],
      "name": "isPaused",
      "outputs": [
        {
          "internalType": "bool",
          "name": "",
          "type": "bool"
        }
      ],
      "payable": false,
      "stateMutability": "view",
      "type": "function"
    },
    {
      "constant": true,
      "inputs": [
        {
          "internalType": "uint256",
          "name": "tokenId",
          "type": "uint256"
        }
      ],
      "name": "ownerOf",
      "outputs": [
        {
          "internalType": "address",
          "name": "",
          "type": "address"
        }
      ],
      "payable": false,
      "stateMutability": "view",
      "type": "function"
    },
    {
      "constant": false,
      "inputs": [
        {
          "internalType": "address",
          "name": "from",
          "type": "address"
        },
        {
          "internalType": "address",
          "name": "to",
          "type": "address"
        },
        {
          "internalType": "uint256",
          "name": "tokenId",
          "type": "uint256"
        }
      ],
      "name": "safeTransferFrom",
      "outputs": [],
      "payable": false,
      "stateMutability": "nonpayable",
      "type": "function"
    },
    {
      "constant": false,
      "inputs": [
        {
          "internalType": "address",
          "name": "from",
          "type": "address"
        },
        {
          "internalType": "address",
          "name": "to",
          "type": "address"
        },
        {
          "internalType": "uint256",
          "name": "tokenId",
          "type": "uint256"
        },
        {
          "internalType": "bytes",
          "name": "_data",
          "type": "bytes"
        }
      ],
      "name": "safeTransferFrom",
      "outputs": [],
      "payable": false,
      "stateMutability": "nonpayable",
      "type": "function"
    },
    {
      "constant": false,
      "inputs": [
        {
          "internalType": "address",
          "name": "to",
          "type": "address"
        },
        {
          "internalType": "bool",
          "name": "approved",
          "type": "bool"
        }
      ],
      "name": "setApprovalForAll",
      "outputs": [],
      "payable": false,
      "stateMutability": "nonpayable",
      "type": "function"
    },
    {
      "constant": false,
      "inputs": [
        {
          "internalType": "bool",
          "name": "pausedVar",
          "type": "bool"
        }
      ],
      "name": "setPaused",
      "outputs": [],
      "payable": false,
      "stateMutability": "nonpayable",
      "type": "function"
    },
    {
      "constant": true,
      "inputs": [
        {
          "internalType": "bytes4",
          "name": "interfaceId",
          "type": "bytes4"
        }
      ],
      "name": "supportsInterface",
      "outputs": [
        {
          "internalType": "bool",
          "name": "",
          "type": "bool"
        }
      ],
      "payable": false,
      "stateMutability": "view",
      "type": "function"
    },
    {
      "constant": true,
      "inputs": [
        {
          "internalType": "uint256",
          "name": "index",
          "type": "uint256"
        }
      ],
      "name": "tokenByIndex",
      "outputs": [
        {
          "internalType": "uint256",
          "name": "",
          "type": "uint256"
        }
      ],
      "payable": false,
      "stateMutability": "view",
      "type": "function"
    },
    {
      "constant": true,
      "inputs": [
        {
          "internalType": "address",
          "name": "owner",
          "type": "address"
        },
        {
          "internalType": "uint256",
          "name": "index",
          "type": "uint256"
        }
      ],
      "name": "tokenOfOwnerByIndex",
      "outputs": [
        {
          "internalType": "uint256",
          "name": "",
          "type": "uint256"
        }
      ],
      "payable": false,
      "stateMutability": "view",
      "type": "function"
    },
    {
      "constant": true,
      "inputs": [
        {
          "internalType": "uint256",
          "name": "tokenId",
          "type": "uint256"
        }
      ],
      "name": "tokenURI",
      "outputs": [
        {
          "internalType": "string",
          "name": "",
          "type": "string"
        }
      ],
      "payable": false,
      "stateMutability": "view",
      "type": "function"
    },
    {
      "constant": true,
      "inputs": [],
      "name": "totalSupply",
      "outputs": [
        {
          "internalType": "uint256",
          "name": "",
          "type": "uint256"
        }
      ],
      "payable": false,
      "stateMutability": "view",
      "type": "function"
    },
    {
      "constant": false,
      "inputs": [
        {
          "internalType": "address",
          "name": "from",
          "type": "address"
        },
        {
          "internalType": "address",
          "name": "to",
          "type": "address"
        },
        {
          "internalType": "uint256",
          "name": "tokenId",
          "type": "uint256"
        }
      ],
      "name": "transferFrom",
      "outputs": [],
      "payable": false,
      "stateMutability": "nonpayable",
      "type": "function"
    },
    {
      "constant": false,
      "inputs": [
        {
          "internalType": "address",
          "name": "newOwner",
          "type": "address"
        }
      ],
      "name": "transferOwnership",
      "outputs": [],
      "payable": false,
      "stateMutability": "nonpayable",
      "type": "function"
    },
    {
      "constant": false,
      "inputs": [
        {
          "internalType": "uint256[2]",
          "name": "a",
          "type": "uint256[2]"
        },
        {
          "internalType": "uint256[2][2]",
          "name": "b",
          "type": "uint256[2][2]"
        },
        {
          "internalType": "uint256[2]",
          "name": "c",
          "type": "uint256[2]"
        },
        {
          "internalType": "uint256[2]",
          "name": "input",
          "type": "uint256[2]"
        }
      ],
      "name": "verifyTx",
      "outputs": [
        {
          "internalType": "bool",
          "name": "r",
          "type": "bool"
        }
      ],
      "payable": false,
      "stateMutability": "nonpayable",
      "type": "function"
    },
    {
      "constant": false,
      "inputs": [
        {
          "internalType": "bytes32",
          "name": "hashKey",
          "type": "bytes32"
        }
      ],
      "name": "getSolutionFromHash",
      "outputs": [
        {
          "internalType": "bool",
          "name": "",
          "type": "bool"
        }
      ],
      "payable": false,
      "stateMutability": "nonpayable",
      "type": "function"
    },
    {
      "constant": false,
      "inputs": [
        {
          "internalType": "uint256",
          "name": "index",
          "type": "uint256"
        },
        {
          "internalType": "address",
          "name": "sender",
          "type": "address"
        },
        {
          "internalType": "uint256",
          "name": "tokenId",
          "type": "uint256"
        },
        {
          "internalType": "uint256[2]",
          "name": "a",
          "type": "uint256[2]"
        },
        {
          "internalType": "uint256[2][2]",
          "name": "b",
          "type": "uint256[2][2]"
        },
        {
          "internalType": "uint256[2]",
          "name": "c",
          "type": "uint256[2]"
        },
        {
          "internalType": "uint256[2]",
          "name": "inputs",
          "type": "uint256[2]"
        }
      ],
      "name": "addSolutions",
      "outputs": [],
      "payable": false,
      "stateMutability": "nonpayable",
      "type": "function"
    }
  ],
  "bytecode": "0x60806040523480156200001157600080fd5b5060405162004a5e38038062004a5e833981810160405260408110156200003757600080fd5b81019080805160405193929190846401000000008211156200005857600080fd5b838201915060208201858111156200006f57600080fd5b82518660018202830111640100000000821117156200008d57600080fd5b8083526020830192505050908051906020019080838360005b83811015620000c3578082015181840152602081019050620000a6565b50505050905090810190601f168015620000f15780820380516001836020036101000a031916815260200191505b50604052602001805160405193929190846401000000008211156200011557600080fd5b838201915060208201858111156200012c57600080fd5b82518660018202830111640100000000821117156200014a57600080fd5b8083526020830192505050908051906020019080838360005b838110156200018057808201518184015260208101905062000163565b50505050905090810190601f168015620001ae5780820380516001836020036101000a031916815260200191505b50604052505050818181816040518060600160405280603f815260200162004a1f603f9139336000806101000a81548173ffffffffffffffffffffffffffffffffffffffff021916908373ffffffffffffffffffffffffffffffffffffffff1602179055507f9e38ac15fb6f429cb4c1d68a79943e344c4ce37b43debdea3555daa570f5361033604051808273ffffffffffffffffffffffffffffffffffffffff1673ffffffffffffffffffffffffffffffffffffffff16815260200191505060405180910390a160008060146101000a81548160ff021916908315150217905550620002a86301ffc9a760e01b6200034860201b60201c565b620002c06380ac58cd60e01b6200034860201b60201c565b620002d863780e9d6360e01b6200034860201b60201c565b82600f9080519060200190620002f0929190620003e8565b50816010908051906020019062000309929190620003e8565b50806011908051906020019062000322929190620003e8565b506200033b635b5e139f60e01b6200034860201b60201c565b5050505050505062000497565b63ffffffff60e01b817bffffffffffffffffffffffffffffffffffffffffffffffffffffffff191614156200037c57600080fd5b6001806000837bffffffffffffffffffffffffffffffffffffffffffffffffffffffff19167bffffffffffffffffffffffffffffffffffffffffffffffffffffffff1916815260200190815260200160002060006101000a81548160ff02191690831515021790555050565b828054600181600116156101000203166002900490600052602060002090601f016020900481019282601f106200042b57805160ff19168380011785556200045c565b828001600101855582156200045c579182015b828111156200045b5782518255916020019190600101906200043e565b5b5090506200046b91906200046f565b5090565b6200049491905b808211156200049057600081600090555060010162000476565b5090565b90565b61457880620004a76000396000f3fe608060405234801561001057600080fd5b50600436106101a95760003560e01c80634f6ccce7116100f9578063b187bd2611610097578063bdc32be011610071578063bdc32be014610e9c578063c87b56dd14610f1f578063e985e9c514610fc6578063f2fde38b14611042576101a9565b8063b187bd2614610be0578063b88d4fde14610c02578063bd48e77c14610d07576101a9565b806370a08231116100d357806370a08231146109f1578063893d20e814610a49578063a22cb46514610a93578063a987d4c614610ae3576101a9565b80634f6ccce7146107c8578063621e9ec01461080a5780636352211e14610983576101a9565b806318160ddd1161016657806327dc297e1161014057806327dc297e146104d75780632f745c591461059c57806338bbfa50146105fe57806342842e0e1461075a576101a9565b806318160ddd146104055780631f26716a1461042357806323b872dd14610469576101a9565b806301ffc9a7146101ae578063081812fc14610213578063095ea7b31461028157806315070401146102cf57806316c38b3c1461035257806317d7de7c14610382575b600080fd5b6101f9600480360360208110156101c457600080fd5b8101908080357bffffffffffffffffffffffffffffffffffffffffffffffffffffffff19169060200190929190505050611086565b604051808215151515815260200191505060405180910390f35b61023f6004803603602081101561022957600080fd5b81019080803590602001909291905050506110ee565b604051808273ffffffffffffffffffffffffffffffffffffffff1673ffffffffffffffffffffffffffffffffffffffff16815260200191505060405180910390f35b6102cd6004803603604081101561029757600080fd5b81019080803573ffffffffffffffffffffffffffffffffffffffff169060200190929190803590602001909291905050506111a6565b005b6102d7611390565b6040518080602001828103825283818151815260200191508051906020019080838360005b838110156103175780820151818401526020810190506102fc565b50505050905090810190601f1680156103445780820380516001836020036101000a031916815260200191505b509250505060405180910390f35b6103806004803603602081101561036857600080fd5b81019080803515159060200190929190505050611432565b005b61038a6114f4565b6040518080602001828103825283818151815260200191508051906020019080838360005b838110156103ca5780820151818401526020810190506103af565b50505050905090810190601f1680156103f75780820380516001836020036101000a031916815260200191505b509250505060405180910390f35b61040d611596565b6040518082815260200191505060405180910390f35b61044f6004803603602081101561043957600080fd5b81019080803590602001909291905050506115a3565b604051808215151515815260200191505060405180910390f35b6104d56004803603606081101561047f57600080fd5b81019080803573ffffffffffffffffffffffffffffffffffffffff169060200190929190803573ffffffffffffffffffffffffffffffffffffffff169060200190929190803590602001909291905050506115d0565b005b61059a600480360360408110156104ed57600080fd5b81019080803590602001909291908035906020019064010000000081111561051457600080fd5b82018360208201111561052657600080fd5b8035906020019184600183028401116401000000008311171561054857600080fd5b91908080601f016020809104026020016040519081016040528093929190818152602001838380828437600081840152601f19601f8201169050808301925050505050505091929192905050506115f3565b005b6105e8600480360360408110156105b257600080fd5b81019080803573ffffffffffffffffffffffffffffffffffffffff16906020019092919080359060200190929190505050611636565b6040518082815260200191505060405180910390f35b6107586004803603606081101561061457600080fd5b81019080803590602001909291908035906020019064010000000081111561063b57600080fd5b82018360208201111561064d57600080fd5b8035906020019184600183028401116401000000008311171561066f57600080fd5b91908080601f016020809104026020016040519081016040528093929190818152602001838380828437600081840152601f19601f820116905080830192505050505050509192919290803590602001906401000000008111156106d257600080fd5b8201836020820111156106e457600080fd5b8035906020019184600183028401116401000000008311171561070657600080fd5b91908080601f016020809104026020016040519081016040528093929190818152602001838380828437600081840152601f19601f8201169050808301925050505050505091929192905050506116a9565b005b6107c66004803603606081101561077057600080fd5b81019080803573ffffffffffffffffffffffffffffffffffffffff169060200190929190803573ffffffffffffffffffffffffffffffffffffffff169060200190929190803590602001909291905050506116ae565b005b6107f4600480360360208110156107de57600080fd5b81019080803590602001909291905050506116ce565b6040518082815260200191505060405180910390f35b610969600480360361014081101561082157600080fd5b8101908080604001906002806020026040519081016040528092919082600260200280828437600081840152601f19601f82011690508083019250505050505091929192908060800190600280602002604051908101604052809291906000905b828210156108d6578382604002016002806020026040519081016040528092919082600260200280828437600081840152601f19601f82011690508083019250505050505081526020019060010190610882565b50505050919291929080604001906002806020026040519081016040528092919082600260200280828437600081840152601f19601f820116905080830192505050505050919291929080604001906002806020026040519081016040528092919082600260200280828437600081840152601f19601f8201169050808301925050505050509192919290505050611702565b604051808215151515815260200191505060405180910390f35b6109af6004803603602081101561099957600080fd5b8101908080359060200190929190505050611949565b604051808273ffffffffffffffffffffffffffffffffffffffff1673ffffffffffffffffffffffffffffffffffffffff16815260200191505060405180910390f35b610a3360048036036020811015610a0757600080fd5b81019080803573ffffffffffffffffffffffffffffffffffffffff169060200190929190505050611a3e565b6040518082815260200191505060405180910390f35b610a51611b30565b604051808273ffffffffffffffffffffffffffffffffffffffff1673ffffffffffffffffffffffffffffffffffffffff16815260200191505060405180910390f35b610ae160048036036040811015610aa957600080fd5b81019080803573ffffffffffffffffffffffffffffffffffffffff169060200190929190803515159060200190929190505050611b59565b005b610bc660048036036060811015610af957600080fd5b81019080803573ffffffffffffffffffffffffffffffffffffffff1690602001909291908035906020019092919080359060200190640100000000811115610b4057600080fd5b820183602082011115610b5257600080fd5b80359060200191846001830284011164010000000083111715610b7457600080fd5b91908080601f016020809104026020016040519081016040528093929190818152602001838380828437600081840152601f19601f820116905080830192505050505050509192919290505050611c93565b604051808215151515815260200191505060405180910390f35b610be8611d58565b604051808215151515815260200191505060405180910390f35b610d0560048036036080811015610c1857600080fd5b81019080803573ffffffffffffffffffffffffffffffffffffffff169060200190929190803573ffffffffffffffffffffffffffffffffffffffff1690602001909291908035906020019092919080359060200190640100000000811115610c7f57600080fd5b820183602082011115610c9157600080fd5b80359060200191846001830284011164010000000083111715610cb357600080fd5b91908080601f016020809104026020016040519081016040528093929190818152602001838380828437600081840152601f19601f820116905080830192505050505050509192919290505050611d6e565b005b610e9a60048036036101a0811015610d1e57600080fd5b8101908080359060200190929190803573ffffffffffffffffffffffffffffffffffffffff1690602001909291908035906020019092919080604001906002806020026040519081016040528092919082600260200280828437600081840152601f19601f82011690508083019250505050505091929192908060800190600280602002604051908101604052809291906000905b82821015610e07578382604002016002806020026040519081016040528092919082600260200280828437600081840152601f19601f82011690508083019250505050505081526020019060010190610db3565b50505050919291929080604001906002806020026040519081016040528092919082600260200280828437600081840152601f19601f820116905080830192505050505050919291929080604001906002806020026040519081016040528092919082600260200280828437600081840152601f19601f8201169050808301925050505050509192919290505050611d94565b005b610ea4612004565b6040518080602001828103825283818151815260200191508051906020019080838360005b83811015610ee4578082015181840152602081019050610ec9565b50505050905090810190601f168015610f115780820380516001836020036101000a031916815260200191505b509250505060405180910390f35b610f4b60048036036020811015610f3557600080fd5b81019080803590602001909291905050506120a6565b6040518080602001828103825283818151815260200191508051906020019080838360005b83811015610f8b578082015181840152602081019050610f70565b50505050905090810190601f168015610fb85780820380516001836020036101000a031916815260200191505b509250505060405180910390f35b61102860048036036040811015610fdc57600080fd5b81019080803573ffffffffffffffffffffffffffffffffffffffff169060200190929190803573ffffffffffffffffffffffffffffffffffffffff16906020019092919050505061216d565b604051808215151515815260200191505060405180910390f35b6110846004803603602081101561105857600080fd5b81019080803573ffffffffffffffffffffffffffffffffffffffff169060200190929190505050612201565b005b600060016000837bffffffffffffffffffffffffffffffffffffffffffffffffffffffff19167bffffffffffffffffffffffffffffffffffffffffffffffffffffffff1916815260200190815260200160002060009054906101000a900460ff169050919050565b60006110f982612381565b61116b576040517f08c379a000000000000000000000000000000000000000000000000000000000815260040180806020018281038252601e8152602001807f54686520676976656e20746f6b656e20646f6573206e6f74206578697374000081525060200191505060405180910390fd5b6003600083815260200190815260200160002060009054906101000a900473ffffffffffffffffffffffffffffffffffffffff169050919050565b6111af81611949565b73ffffffffffffffffffffffffffffffffffffffff168273ffffffffffffffffffffffffffffffffffffffff161415611233576040517f08c379a00000000000000000000000000000000000000000000000000000000081526004018080602001828103825260398152602001806144d96039913960400191505060405180910390fd5b3373ffffffffffffffffffffffffffffffffffffffff16611252611b30565b73ffffffffffffffffffffffffffffffffffffffff161480611282575061128161127b82611949565b3361216d565b5b6112d7576040517f08c379a00000000000000000000000000000000000000000000000000000000081526004018080602001828103825260298152602001806144226029913960400191505060405180910390fd5b816003600083815260200190815260200160002060006101000a81548173ffffffffffffffffffffffffffffffffffffffff021916908373ffffffffffffffffffffffffffffffffffffffff160217905550808273ffffffffffffffffffffffffffffffffffffffff1661134a83611949565b73ffffffffffffffffffffffffffffffffffffffff167f8c5be1e5ebec7d5bd14f71427d1e84f3dd0314c0f7b2291e5b200ac8c7c3b92560405160405180910390a45050565b606060108054600181600116156101000203166002900480601f0160208091040260200160405190810160405280929190818152602001828054600181600116156101000203166002900480156114285780601f106113fd57610100808354040283529160200191611428565b820191906000526020600020905b81548152906001019060200180831161140b57829003601f168201915b5050505050905090565b6000809054906101000a900473ffffffffffffffffffffffffffffffffffffffff1673ffffffffffffffffffffffffffffffffffffffff163373ffffffffffffffffffffffffffffffffffffffff16146114d7576040517f08c379a000000000000000000000000000000000000000000000000000000000815260040180806020018281038252603281526020018061444b6032913960400191505060405180910390fd5b80600060146101000a81548160ff02191690831515021790555050565b6060600f8054600181600116156101000203166002900480601f01602080910402602001604051908101604052809291908181526020018280546001816001161561010002031660029004801561158c5780601f106115615761010080835404028352916020019161158c565b820191906000526020600020905b81548152906001019060200180831161156f57829003601f168201915b5050505050905090565b6000600880549050905090565b600060136000838152602001908152602001600020600d0160009054906101000a900460ff169050919050565b6115da33826123f3565b6115e357600080fd5b6115ee838383612488565b505050565b611632828260006040519080825280601f01601f19166020018201604052801561162c5781602001600182028038833980820191505090505b506116a9565b5050565b600061164183611a3e565b821061164c57600080fd5b600660008473ffffffffffffffffffffffffffffffffffffffff1673ffffffffffffffffffffffffffffffffffffffff168152602001908152602001600020828154811061169657fe5b9060005260206000200154905092915050565b505050565b6116c983838360405180602001604052806000815250611d6e565b505050565b60006116d8611596565b82106116e357600080fd5b600882815481106116f057fe5b90600052602060002001549050919050565b600061170c61401f565b60405180604001604052808760006002811061172457fe5b602002015181526020018760016002811061173b57fe5b60200201518152508160000181905250604051806040016040528060405180604001604052808860006002811061176e57fe5b602002015160006002811061177f57fe5b602002015181526020018860006002811061179657fe5b60200201516001600281106117a757fe5b602002015181525081526020016040518060400160405280886001600281106117cc57fe5b60200201516000600281106117dd57fe5b60200201518152602001886001600281106117f457fe5b602002015160016002811061180557fe5b6020020151815250815250816020018190525060405180604001604052808560006002811061183057fe5b602002015181526020018560016002811061184757fe5b60200201518152508160400181905250606060026040519080825280602002602001820160405280156118895781602001602082028038833980820191505090505b50905060008090505b60028110156118d1578481600281106118a757fe5b60200201518282815181106118b857fe5b6020026020010181815250508080600101915050611892565b5060006118de82846124ac565b141561193a577f3f3cfdb26fb5f9f1786ab4f1a1f9cd4c0b5e726cbdfc26e495261731aad44e3960405180806020018281038252602281526020018061447d6022913960400191505060405180910390a1600192505050611941565b6000925050505b949350505050565b60008073ffffffffffffffffffffffffffffffffffffffff166002600084815260200190815260200160002060009054906101000a900473ffffffffffffffffffffffffffffffffffffffff1673ffffffffffffffffffffffffffffffffffffffff161415611a03576040517f08c379a00000000000000000000000000000000000000000000000000000000081526004018080602001828103825260278152602001806143c36027913960400191505060405180910390fd5b6002600083815260200190815260200160002060009054906101000a900473ffffffffffffffffffffffffffffffffffffffff169050919050565b60008073ffffffffffffffffffffffffffffffffffffffff168273ffffffffffffffffffffffffffffffffffffffff161415611ae2576040517f08c379a00000000000000000000000000000000000000000000000000000000081526004018080602001828103825260158152602001807f496e76616c6964206f776e65722061646472657373000000000000000000000081525060200191505060405180910390fd5b611b29600460008473ffffffffffffffffffffffffffffffffffffffff1673ffffffffffffffffffffffffffffffffffffffff16815260200190815260200160002061261e565b9050919050565b60008060009054906101000a900473ffffffffffffffffffffffffffffffffffffffff16905090565b3373ffffffffffffffffffffffffffffffffffffffff168273ffffffffffffffffffffffffffffffffffffffff161415611b9257600080fd5b80600560003373ffffffffffffffffffffffffffffffffffffffff1673ffffffffffffffffffffffffffffffffffffffff16815260200190815260200160002060008473ffffffffffffffffffffffffffffffffffffffff1673ffffffffffffffffffffffffffffffffffffffff16815260200190815260200160002060006101000a81548160ff0219169083151502179055508173ffffffffffffffffffffffffffffffffffffffff163373ffffffffffffffffffffffffffffffffffffffff167f17307eab39ab6107e8899845ad3d59bd9653f200f220920489ca2b5937696c3183604051808215151515815260200191505060405180910390a35050565b60008060009054906101000a900473ffffffffffffffffffffffffffffffffffffffff1673ffffffffffffffffffffffffffffffffffffffff163373ffffffffffffffffffffffffffffffffffffffff1614611d3a576040517f08c379a000000000000000000000000000000000000000000000000000000000815260040180806020018281038252603281526020018061444b6032913960400191505060405180910390fd5b611d44848461262c565b611d4d8361264d565b600190509392505050565b60008060149054906101000a900460ff16905090565b611d798484846115d0565b611d858484848461270b565b611d8e57600080fd5b50505050565b6000611da285858585611702565b905060006002898860405160200180838152602001828152602001925050506040516020818303038152906040526040518082805190602001908083835b60208310611e035780518252602082019150602081019050602083039250611de0565b6001836020036101000a038019825116818451168082178552505050505050905001915050602060405180830381855afa158015611e45573d6000803e3d6000fd5b5050506040513d6020811015611e5a57600080fd5b81019080805190602001909291905050509050611e75614052565b6040518061012001604052808b81526020018a73ffffffffffffffffffffffffffffffffffffffff168152602001898152602001888152602001878152602001868152602001858152602001841515815260200183815250905080601360008481526020019081526020016000206000820151816000015560208201518160010160006101000a81548173ffffffffffffffffffffffffffffffffffffffff021916908373ffffffffffffffffffffffffffffffffffffffff16021790555060408201518160020155606082015181600301906002611f559291906140d1565b50608082015181600501906002611f6d929190614111565b5060a082015181600901906002611f859291906140d1565b5060c082015181600b01906002611f9d9291906140d1565b5060e082015181600d0160006101000a81548160ff02191690831515021790555061010082015181600e01559050507f515e6f06756d8ff49c0a3b97530a4e50e728824dc7e4878408a433a3cd258c5260405160405180910390a150505050505050505050565b606060118054600181600116156101000203166002900480601f01602080910402602001604051908101604052809291908181526020018280546001816001161561010002031660029004801561209c5780601f106120715761010080835404028352916020019161209c565b820191906000526020600020905b81548152906001019060200180831161207f57829003601f168201915b5050505050905090565b60606120b182612381565b6120ba57600080fd5b601260008381526020019081526020016000208054600181600116156101000203166002900480601f0160208091040260200160405190810160405280929190818152602001828054600181600116156101000203166002900480156121615780601f1061213657610100808354040283529160200191612161565b820191906000526020600020905b81548152906001019060200180831161214457829003601f168201915b50505050509050919050565b6000600560008473ffffffffffffffffffffffffffffffffffffffff1673ffffffffffffffffffffffffffffffffffffffff16815260200190815260200160002060008373ffffffffffffffffffffffffffffffffffffffff1673ffffffffffffffffffffffffffffffffffffffff16815260200190815260200160002060009054906101000a900460ff16905092915050565b6000809054906101000a900473ffffffffffffffffffffffffffffffffffffffff1673ffffffffffffffffffffffffffffffffffffffff163373ffffffffffffffffffffffffffffffffffffffff16146122a6576040517f08c379a000000000000000000000000000000000000000000000000000000000815260040180806020018281038252603281526020018061444b6032913960400191505060405180910390fd5b600073ffffffffffffffffffffffffffffffffffffffff168173ffffffffffffffffffffffffffffffffffffffff161461237e57806000806101000a81548173ffffffffffffffffffffffffffffffffffffffff021916908373ffffffffffffffffffffffffffffffffffffffff1602179055507f9e38ac15fb6f429cb4c1d68a79943e344c4ce37b43debdea3555daa570f5361081604051808273ffffffffffffffffffffffffffffffffffffffff1673ffffffffffffffffffffffffffffffffffffffff16815260200191505060405180910390a15b50565b6000806002600084815260200190815260200160002060009054906101000a900473ffffffffffffffffffffffffffffffffffffffff169050600073ffffffffffffffffffffffffffffffffffffffff168173ffffffffffffffffffffffffffffffffffffffff161415915050919050565b6000806123ff83611949565b90508073ffffffffffffffffffffffffffffffffffffffff168473ffffffffffffffffffffffffffffffffffffffff16148061246e57508373ffffffffffffffffffffffffffffffffffffffff16612456846110ee565b73ffffffffffffffffffffffffffffffffffffffff16145b8061247f575061247e818561216d565b5b91505092915050565b6124938383836128f4565b61249d8382612b7a565b6124a78282612d18565b505050565b6000807f30644e72e131a029b85045b68181585d2833e84879b9709143e1f593f000000190506124da614161565b6124e2612ddf565b90508060800151516001865101146124f957600080fd5b6125016141a8565b6040518060400160405280600081526020016000815250905060008090505b8651811015612597578387828151811061253657fe5b60200260200101511061254857600080fd5b612588826125838560800151600185018151811061256257fe5b60200260200101518a858151811061257657fe5b602002602001015161322c565b6132c0565b91508080600101915050612520565b506125ba8183608001516000815181106125ad57fe5b60200260200101516132c0565b9050612600856000015186602001516125d284613373565b85604001516125e48a60400151613373565b87606001516125f68960000151613373565b896020015161340d565b6126105760019350505050612618565b600093505050505b92915050565b600081600001549050919050565b6126368282613571565b6126408282612d18565b612649816136ff565b5050565b61265681612381565b6126c8576040517f08c379a00000000000000000000000000000000000000000000000000000000081526004018080602001828103825260208152602001807f54686520676976656e20746f6b656e496420646f6573206e6f7420657869737481525060200191505060405180910390fd5b6126e16126d3612004565b6126dc8361374b565b613878565b6012600083815260200190815260200160002090805190602001906127079291906141c2565b5050565b600061272c8473ffffffffffffffffffffffffffffffffffffffff166138bc565b61273957600190506128ec565b60008473ffffffffffffffffffffffffffffffffffffffff1663150b7a02338887876040518563ffffffff1660e01b8152600401808573ffffffffffffffffffffffffffffffffffffffff1673ffffffffffffffffffffffffffffffffffffffff1681526020018473ffffffffffffffffffffffffffffffffffffffff1673ffffffffffffffffffffffffffffffffffffffff16815260200183815260200180602001828103825283818151815260200191508051906020019080838360005b838110156128145780820151818401526020810190506127f9565b50505050905090810190601f1680156128415780820380516001836020036101000a031916815260200191505b5095505050505050602060405180830381600087803b15801561286357600080fd5b505af1158015612877573d6000803e3d6000fd5b505050506040513d602081101561288d57600080fd5b8101908080519060200190929190505050905063150b7a0260e01b7bffffffffffffffffffffffffffffffffffffffffffffffffffffffff1916817bffffffffffffffffffffffffffffffffffffffffffffffffffffffff1916149150505b949350505050565b6002600082815260200190815260200160002060009054906101000a900473ffffffffffffffffffffffffffffffffffffffff1673ffffffffffffffffffffffffffffffffffffffff168373ffffffffffffffffffffffffffffffffffffffff16146129ab576040517f08c379a00000000000000000000000000000000000000000000000000000000081526004018080602001828103825260388152602001806143ea6038913960400191505060405180910390fd5b600073ffffffffffffffffffffffffffffffffffffffff168273ffffffffffffffffffffffffffffffffffffffff161415612a31576040517f08c379a00000000000000000000000000000000000000000000000000000000081526004018080602001828103825260328152602001806145126032913960400191505060405180910390fd5b612a3a81613907565b612a81600460008573ffffffffffffffffffffffffffffffffffffffff1673ffffffffffffffffffffffffffffffffffffffff1681526020019081526020016000206139c5565b612ac8600460008473ffffffffffffffffffffffffffffffffffffffff1673ffffffffffffffffffffffffffffffffffffffff1681526020019081526020016000206139e8565b816002600083815260200190815260200160002060006101000a81548173ffffffffffffffffffffffffffffffffffffffff021916908373ffffffffffffffffffffffffffffffffffffffff160217905550808273ffffffffffffffffffffffffffffffffffffffff168473ffffffffffffffffffffffffffffffffffffffff167fddf252ad1be2c89b69c2b068fc378daa952ba7f163c4a11628f55a4df523b3ef60405160405180910390a4505050565b6000612bd26001600660008673ffffffffffffffffffffffffffffffffffffffff1673ffffffffffffffffffffffffffffffffffffffff168152602001908152602001600020805490506139fe90919063ffffffff16565b9050600060076000848152602001908152602001600020549050818114612cbf576000600660008673ffffffffffffffffffffffffffffffffffffffff1673ffffffffffffffffffffffffffffffffffffffff1681526020019081526020016000208381548110612c3f57fe5b9060005260206000200154905080600660008773ffffffffffffffffffffffffffffffffffffffff1673ffffffffffffffffffffffffffffffffffffffff1681526020019081526020016000208381548110612c9757fe5b9060005260206000200181905550816007600083815260200190815260200160002081905550505b600660008573ffffffffffffffffffffffffffffffffffffffff1673ffffffffffffffffffffffffffffffffffffffff168152602001908152602001600020805480919060019003612d119190614242565b5050505050565b600660008373ffffffffffffffffffffffffffffffffffffffff1673ffffffffffffffffffffffffffffffffffffffff168152602001908152602001600020805490506007600083815260200190815260200160002081905550600660008373ffffffffffffffffffffffffffffffffffffffff1673ffffffffffffffffffffffffffffffffffffffff1681526020019081526020016000208190806001815401808255809150509060018203906000526020600020016000909192909190915055505050565b612de7614161565b60405180604001604052807f1936c240636390dc823e3a728e94b208eb53c6756d81da57ec3425e05d43ac1081526020017f2d70ff78e8216bf29d58923a686d9738278b8ce2fd822e197c85b09286d155668152508160000181905250604051806040016040528060405180604001604052807f2b4daf047abe2e7f0b311118c1b963b63695dc0d769cea78849604434de055bf81526020017f29c13ecb6f33dbc4b3b8a02e2e255511ce4c26a8a2f299efcc94caf2de4fce00815250815260200160405180604001604052807f1da9020008df7f549751f8a251af3b2dc4a2ad3e0870de54acaedd9fc1b47e1781526020017f25ea0d7e2b29de431b86a943db30dbf4d98f68df9ca8a9628d14d1591e817d908152508152508160200181905250604051806040016040528060405180604001604052807f011016e22ae045444f50fb80f246ec486c7e02af09132cd38c4fcf484983e4f281526020017ee83c788c2878d1d5eba3ed49b0d81e4c0487dedc3e4d1c2baab5833785b62f815250815260200160405180604001604052807f05eb89e741ed5b5d611cebf92d1ed02cd6f3311089f0d400df7d9ced5a48fd4181526020017f132a90a3b0d369ccd66e2a5ba04a935e44d8ad5dca93a76bba592a578130a9118152508152508160400181905250604051806040016040528060405180604001604052807f065f6a3323a2abffd621fc263f348eb914904b68d5897729ae34a6b9d33f085281526020017f0c3b60f59d3bd50328a04c0ff6d979199685d0526f89f6ac29d6174ce24707a2815250815260200160405180604001604052807f26e7ebce2b44efef6b6315938e33f0a8ecc82dbad635c9efa681ed85bbb5998281526020017f12e0f3721230a0f38f6c9913048d5230fd2615ef3ff7f6ee4b20dfe0bdea1a86815250815250816060018190525060036040519080825280602002602001820160405280156130cd57816020015b6130ba61426e565b8152602001906001900390816130b25790505b50816080018190525060405180604001604052807f1ef8d5d70234aa3e3d8fc4e3f1ca01c703182580b581106798f05b35fd5082c081526020017f2e468046d4ae35138e2032224925d5389712e5ca5e68f4d9c1e1858e7d65602d815250816080015160008151811061313c57fe5b602002602001018190525060405180604001604052807f0cefae0e3fa6aa25a4485ab7b21d32794d3431a4e4a5ca82ea427b831534c2c981526020017f23e3d2035b70884e547638b111870f5957f58ad8068f7a21470164ad361e1e8881525081608001516001815181106131ad57fe5b602002602001018190525060405180604001604052807f030ffe78ec3de150e8688db619bde78e21e894754e6be5ed83742677628b24bc81526020017f053392f88cfa9092dfbc0bd199d8159e56207779473c24fc601eff91bcd345ca815250816080015160028151811061321e57fe5b602002602001018190525090565b6132346141a8565b61323c614288565b83600001518160006003811061324e57fe5b60200201818152505083602001518160016003811061326957fe5b602002018181525050828160026003811061328057fe5b6020020181815250506000606083608084600060076107d05a03f1905080600081146132ab576132ad565bfe5b50806132b857600080fd5b505092915050565b6132c86141a8565b6132d06142aa565b8360000151816000600481106132e257fe5b6020020181815250508360200151816001600481106132fd57fe5b60200201818152505082600001518160026004811061331857fe5b60200201818152505082602001518160036004811061333357fe5b602002018181525050600060608360c084600060066107d05a03f19050806000811461335e57613360565bfe5b508061336b57600080fd5b505092915050565b61337b6141a8565b60007f30644e72e131a029b85045b68181585d97816a916871ca8d3c208c16d87cfd479050600083600001511480156133b8575060008360200151145b156133dc576040518060400160405280600081526020016000815250915050613408565b604051806040016040528084600001518152602001828560200151816133fe57fe5b0683038152509150505b919050565b60006060600460405190808252806020026020018201604052801561344c57816020015b61343961426e565b8152602001906001900390816134315790505b5090506060600460405190808252806020026020018201604052801561348c57816020015b6134796142cc565b8152602001906001900390816134715790505b5090508a8260008151811061349d57fe5b602002602001018190525088826001815181106134b657fe5b602002602001018190525086826002815181106134cf57fe5b602002602001018190525084826003815181106134e857fe5b6020026020010181905250898160008151811061350157fe5b6020026020010181905250878160018151811061351a57fe5b6020026020010181905250858160028151811061353357fe5b6020026020010181905250838160038151811061354c57fe5b60200260200101819052506135618282613a48565b9250505098975050505050505050565b61357a81612381565b806135b15750600073ffffffffffffffffffffffffffffffffffffffff168273ffffffffffffffffffffffffffffffffffffffff16145b15613607576040517f08c379a000000000000000000000000000000000000000000000000000000000815260040180806020018281038252603a81526020018061449f603a913960400191505060405180910390fd5b816002600083815260200190815260200160002060006101000a81548173ffffffffffffffffffffffffffffffffffffffff021916908373ffffffffffffffffffffffffffffffffffffffff1602179055506136a0600460008473ffffffffffffffffffffffffffffffffffffffff1673ffffffffffffffffffffffffffffffffffffffff1681526020019081526020016000206139e8565b808273ffffffffffffffffffffffffffffffffffffffff163373ffffffffffffffffffffffffffffffffffffffff167fddf252ad1be2c89b69c2b068fc378daa952ba7f163c4a11628f55a4df523b3ef60405160405180910390a45050565b6008805490506009600083815260200190815260200160002081905550600881908060018154018082558091505090600182039060005260206000200160009091929091909150555050565b60606000821415613793576040518060400160405280600181526020017f30000000000000000000000000000000000000000000000000000000000000008152509050613873565b600082905060005b600082146137bd578080600101915050600a82816137b557fe5b04915061379b565b6060816040519080825280601f01601f1916602001820160405280156137f25781602001600182028038833980820191505090505b50905060006001830390505b6000861461386b57600a868161381057fe5b0660300160f81b8282806001900393508151811061382a57fe5b60200101907effffffffffffffffffffffffffffffffffffffffffffffffffffffffffffff1916908160001a905350600a868161386357fe5b0495506137fe565b819450505050505b919050565b60606138b48383604051806020016040528060008152506040518060200160405280600081525060405180602001604052806000815250613c9d565b905092915050565b60008060007fc5d2460186f7233c927e7db2dcc703c0e500b653ca82273b7bfad8045d85a47060001b9050833f91508082141580156138fe57506000801b8214155b92505050919050565b600073ffffffffffffffffffffffffffffffffffffffff166003600083815260200190815260200160002060009054906101000a900473ffffffffffffffffffffffffffffffffffffffff1673ffffffffffffffffffffffffffffffffffffffff16146139c25760006003600083815260200190815260200160002060006101000a81548173ffffffffffffffffffffffffffffffffffffffff021916908373ffffffffffffffffffffffffffffffffffffffff1602179055505b50565b6139dd600182600001546139fe90919063ffffffff16565b816000018190555050565b6001816000016000828254019250508190555050565b6000613a4083836040518060400160405280601e81526020017f536166654d6174683a207375627472616374696f6e206f766572666c6f770000815250613f5f565b905092915050565b60008151835114613a5857600080fd5b6000835190506000600682029050606081604051908082528060200260200182016040528015613a975781602001602082028038833980820191505090505b50905060008090505b83811015613c3d57868181518110613ab457fe5b602002602001015160000151826000600684020181518110613ad257fe5b602002602001018181525050868181518110613aea57fe5b602002602001015160200151826001600684020181518110613b0857fe5b602002602001018181525050858181518110613b2057fe5b602002602001015160000151600060028110613b3857fe5b6020020151826002600684020181518110613b4f57fe5b602002602001018181525050858181518110613b6757fe5b602002602001015160000151600160028110613b7f57fe5b6020020151826003600684020181518110613b9657fe5b602002602001018181525050858181518110613bae57fe5b602002602001015160200151600060028110613bc657fe5b6020020151826004600684020181518110613bdd57fe5b602002602001018181525050858181518110613bf557fe5b602002602001015160200151600160028110613c0d57fe5b6020020151826005600684020181518110613c2457fe5b6020026020010181815250508080600101915050613aa0565b50613c466142f2565b60006020826020860260208601600060086107d05a03f190508060008114613c6d57613c6f565bfe5b5080613c7a57600080fd5b600082600060018110613c8957fe5b602002015114159550505050505092915050565b6060808690506060869050606086905060608690506060869050606081518351855187518951010101016040519080825280601f01601f191660200182016040528015613cf95781602001600182028038833980820191505090505b509050606081905060008090506000809050600090505b8851811015613d7e57888181518110613d2557fe5b602001015160f81c60f81b838380600101945081518110613d4257fe5b60200101907effffffffffffffffffffffffffffffffffffffffffffffffffffffffffffff1916908160001a9053508080600101915050613d10565b600090505b8751811015613df157878181518110613d9857fe5b602001015160f81c60f81b838380600101945081518110613db557fe5b60200101907effffffffffffffffffffffffffffffffffffffffffffffffffffffffffffff1916908160001a9053508080600101915050613d83565b600090505b8651811015613e6457868181518110613e0b57fe5b602001015160f81c60f81b838380600101945081518110613e2857fe5b60200101907effffffffffffffffffffffffffffffffffffffffffffffffffffffffffffff1916908160001a9053508080600101915050613df6565b600090505b8551811015613ed757858181518110613e7e57fe5b602001015160f81c60f81b838380600101945081518110613e9b57fe5b60200101907effffffffffffffffffffffffffffffffffffffffffffffffffffffffffffff1916908160001a9053508080600101915050613e69565b600090505b8451811015613f4a57848181518110613ef157fe5b602001015160f81c60f81b838380600101945081518110613f0e57fe5b60200101907effffffffffffffffffffffffffffffffffffffffffffffffffffffffffffff1916908160001a9053508080600101915050613edc565b82995050505050505050505095945050505050565b600083831115829061400c576040517f08c379a00000000000000000000000000000000000000000000000000000000081526004018080602001828103825283818151815260200191508051906020019080838360005b83811015613fd1578082015181840152602081019050613fb6565b50505050905090810190601f168015613ffe5780820380516001836020036101000a031916815260200191505b509250505060405180910390fd5b5060008385039050809150509392505050565b604051806060016040528061403261426e565b815260200161403f6142cc565b815260200161404c61426e565b81525090565b60405180610120016040528060008152602001600073ffffffffffffffffffffffffffffffffffffffff16815260200160008152602001614091614314565b815260200161409e614336565b81526020016140ab614314565b81526020016140b8614314565b8152602001600015158152602001600080191681525090565b8260028101928215614100579160200282015b828111156140ff5782518255916020019190600101906140e4565b5b50905061410d9190614363565b5090565b82600280028101928215614150579160200282015b8281111561414f5782518290600261413f9291906140d1565b5091602001919060020190614126565b5b50905061415d9190614388565b5090565b6040518060a0016040528061417461426e565b81526020016141816142cc565b815260200161418e6142cc565b815260200161419b6142cc565b8152602001606081525090565b604051806040016040528060008152602001600081525090565b828054600181600116156101000203166002900490600052602060002090601f016020900481019282601f1061420357805160ff1916838001178555614231565b82800160010185558215614231579182015b82811115614230578251825591602001919060010190614215565b5b50905061423e9190614363565b5090565b815481835581811115614269578183600052602060002091820191016142689190614363565b5b505050565b604051806040016040528060008152602001600081525090565b6040518060600160405280600390602082028038833980820191505090505090565b6040518060800160405280600490602082028038833980820191505090505090565b60405180604001604052806142df614314565b81526020016142ec614314565b81525090565b6040518060200160405280600190602082028038833980820191505090505090565b6040518060400160405280600290602082028038833980820191505090505090565b60405180604001604052806002905b61434d614314565b8152602001906001900390816143455790505090565b61438591905b80821115614381576000816000905550600101614369565b5090565b90565b6143b191905b808211156143ad57600081816143a491906143b4565b5060020161438e565b5090565b90565b50600081556001016000905556fe5468657265206973206e6f206f776e657220666f722074686520676976656e20746f6b656e496452657175697265732066726f6d206164647265737320746f20626520746865206f776e6572206f662074686520676976656e20746f6b656e4e6f7420636f6e7472616374206f776e6572206f7220216973417070726f766564466f72416c6c28294572726f722e2e2e6f6e6c7920746865206f776e65722063616e2075736520746869732066756e6374696f6e616c6974792e5472616e73616374696f6e207375636365737366756c6c792076657269666965642e54686520746f6b656e496420616c726561647920657869737473206f722074686520676976656e206164647265737320697320696e76616c696454686520746f2061646472657373206973207468652063757272656e74206f776e657220666f722074686520676976656e20746f6b656e4964526571756972657320746f6b656e20746f206265207472616e73666572656420746f20612076616c69642061646472657373a265627a7a723158204650248b6f2ec9fd39502715bcd7378c678ce4df31ab8ea6922d259b0982555464736f6c6343000510003268747470733a2f2f73332d75732d776573742d322e616d617a6f6e6177732e636f6d2f756461636974792d626c6f636b636861696e2f63617073746f6e652f",
  "source": "pragma solidity >=0.4.21 <0.6.0;\n//pragma solidity ^0.6.4; // for generating abi using solc\nimport './ERC721Mintable.sol';\nimport './SquareVerifier.sol';\n\n// TODO define a contract call to the zokrates generated solidity contract <Verifier> or <renamedVerifier>\n\n\n// Reference https://medium.com/@andresaaap/capstone-real-estate-marketplace-project-faq-udacity-blockchain-69fe13b4c14e\n\n// TODO define another contract named SolnSquareVerifier that inherits from your ERC721Mintable class\ncontract SolnSquareVerifier is CustomERC721Token, SquareVerifier {\n\n    // TODO define a solutions struct that can hold an index & an address\n    struct solutions {\n        uint256 _index;             // what is this for\n        address _addressSender;\n        uint256 _tokenId;\n\n        // Components of proof.json\n        uint256[2] _proofA;         // input a to proof.json\n        uint256[2][2] _proofB;      // input b to proof.json\n        uint256[2] _proofC;         // input c to proof.json\n        uint256[2] _proofInputs;    // input 'inputs' to proof.json\n        bool _result;               // result of calling verifyTx\n\n        bytes32 hashUniq;           // hash used for uniqueness\n    }\n\n    // TODO define an array of the above struct\n    // ^^ according to https://knowledge.udacity.com/questions/36906 both are not needed\n\n    // TODO define a mapping to store unique solutions submitted\n    mapping (bytes32 => solutions) uniqSolutions;\n\n    function getSolutionFromHash(bytes32 hashKey) public returns(bool){\n        return uniqSolutions[hashKey]._result;\n    }\n\n    // TODO Create an event to emit when a solution is added\n    event solutionAdded();\n\n    // TODO Create a function to add the solutions to the array and emit the event\n    function addSolutions(uint256 index, address sender, uint256 tokenId, uint256[2] memory a, uint256[2][2] memory b, uint256[2] memory c, uint256[2] memory inputs) public {\n        bool calculatedResult = super.verifyTx(a, b, c, inputs);\n        //require(calculatedResult, \"Solution is not true\"); // need to be true?\n        //bytes32 calculatedHash = sha256(a, b, c, inputs, calculatedResult);\n        bytes32 calculatedHash = sha256(abi.encodePacked(index, tokenId));\n\n        solutions memory newSolution = solutions(index, sender, tokenId, a, b, c, inputs, calculatedResult, calculatedHash);\n        uniqSolutions[calculatedHash] = newSolution;\n\n        emit solutionAdded();\n    }\n\n    constructor(string memory name, string memory symbol) CustomERC721Token(name, symbol) public {\n\n    }\n\n    // TODO Create a function to mint new NFT only after the solution has been verified\n    //  - make sure the solution is unique (has not been used before)\n    //  - make sure you handle metadata as well as tokenSuplly\n    /*function mintNewNFT(address to, uint256 tokenId, string memory tokenURI, uint256 index) public{\n        //addSolutions(index, to);\n        bytes32 calculatedHash = sha256(abi.encodePacked(index, tokenId));\n        require(uniqSolutions[calculatedHash]._addressSender != address(0), \"Solution does not have a sender therefore does not exist\");\n\n        super._mint(to, tokenId, tokenURI);\n    }*/\n}\n\n\n\n\n\n\n\n\n\n\n\n\n\n\n\n\n\n\n\n\n\n\n\n\n\n\n",
  "sourcePath": "/Users/peyton/Documents/Nanodegrees/BlockchainDev/blockchain-developer-nanodegree/Blockchain-Capstone/eth-contracts/contracts/SolnSquareVerifier.sol",
  "compiler": {
    "name": "solc",
    "version": "0.5.16+commit.9c3226ce.Emscripten.clang"
  },
  "schemaVersion": "3.0.23",
  "updatedAt": "2020-03-19T01:11:17.587Z",
  "networkType": "ethereum",
  "devdoc": {
    "methods": {
      "isApprovedForAll(address,address)": {
        "details": "Tells whether an operator is approved by a given owner",
        "params": {
          "operator": "operator address which you want to query the approval of",
          "owner": "owner address which you want to query the approval of"
        },
        "return": "bool whether the given operator is approved by the given owner"
      },
      "setApprovalForAll(address,bool)": {
        "details": "Sets or unsets the approval of a given operator An operator is allowed to transfer all tokens of the sender on their behalf",
        "params": {
          "approved": "representing the status of the approval to be set",
          "to": "operator address to set the approval"
        }
      },
      "supportsInterface(bytes4)": {
        "details": "implement supportsInterface(bytes4) using a lookup table"
      },
      "tokenByIndex(uint256)": {
        "details": "Gets the token ID at a given index of all the tokens in this contract Reverts if the index is greater or equal to the total number of tokens",
        "params": {
          "index": "uint256 representing the index to be accessed of the tokens list"
        },
        "return": "uint256 token ID at the given index of the tokens list"
      },
      "tokenOfOwnerByIndex(address,uint256)": {
        "details": "Gets the token ID at a given index of the tokens list of the requested owner",
        "params": {
          "index": "uint256 representing the index to be accessed of the requested tokens list",
          "owner": "address owning the tokens list to be accessed"
        },
        "return": "uint256 token ID at the given index of the tokens list owned by the requested address"
      },
      "totalSupply()": {
        "details": "Gets the total amount of tokens stored by the contract",
        "return": "uint256 representing the total amount of tokens"
      }
    }
  },
  "userdoc": {
    "methods": {}
  }
}