{
  "contractName": "SolnSquareVerifier",
  "abi": [
    {
      "inputs": [
        {
          "internalType": "string",
          "name": "name",
          "type": "string"
        },
        {
          "internalType": "string",
          "name": "symbol",
          "type": "string"
        }
      ],
      "payable": false,
      "stateMutability": "nonpayable",
      "type": "constructor"
    },
    {
      "anonymous": false,
      "inputs": [
        {
          "indexed": true,
          "internalType": "address",
          "name": "owner",
          "type": "address"
        },
        {
          "indexed": true,
          "internalType": "address",
          "name": "approved",
          "type": "address"
        },
        {
          "indexed": true,
          "internalType": "uint256",
          "name": "tokenId",
          "type": "uint256"
        }
      ],
      "name": "Approval",
      "type": "event"
    },
    {
      "anonymous": false,
      "inputs": [
        {
          "indexed": true,
          "internalType": "address",
          "name": "owner",
          "type": "address"
        },
        {
          "indexed": true,
          "internalType": "address",
          "name": "operator",
          "type": "address"
        },
        {
          "indexed": false,
          "internalType": "bool",
          "name": "approved",
          "type": "bool"
        }
      ],
      "name": "ApprovalForAll",
      "type": "event"
    },
    {
      "anonymous": false,
      "inputs": [
        {
          "indexed": false,
          "internalType": "address",
          "name": "triggerAddress",
          "type": "address"
        }
      ],
      "name": "Paused",
      "type": "event"
    },
    {
      "anonymous": false,
      "inputs": [
        {
          "indexed": true,
          "internalType": "address",
          "name": "from",
          "type": "address"
        },
        {
          "indexed": true,
          "internalType": "address",
          "name": "to",
          "type": "address"
        },
        {
          "indexed": true,
          "internalType": "uint256",
          "name": "tokenId",
          "type": "uint256"
        }
      ],
      "name": "Transfer",
      "type": "event"
    },
    {
      "anonymous": false,
      "inputs": [
        {
          "indexed": false,
          "internalType": "address",
          "name": "triggerAddress",
          "type": "address"
        }
      ],
      "name": "Unpaused",
      "type": "event"
    },
    {
      "anonymous": false,
      "inputs": [
        {
          "indexed": false,
          "internalType": "string",
          "name": "s",
          "type": "string"
        }
      ],
      "name": "Verified",
      "type": "event"
    },
    {
      "anonymous": false,
      "inputs": [
        {
          "indexed": false,
          "internalType": "address",
          "name": "newOwner",
          "type": "address"
        }
      ],
      "name": "ownerShip",
      "type": "event"
    },
    {
      "anonymous": false,
      "inputs": [],
      "name": "solutionAdded",
      "type": "event"
    },
    {
      "constant": false,
      "inputs": [
        {
          "internalType": "bytes32",
          "name": "_myid",
          "type": "bytes32"
        },
        {
          "internalType": "string",
          "name": "_result",
          "type": "string"
        }
      ],
      "name": "__callback",
      "outputs": [],
      "payable": false,
      "stateMutability": "nonpayable",
      "type": "function"
    },
    {
      "constant": false,
      "inputs": [
        {
          "internalType": "bytes32",
          "name": "_myid",
          "type": "bytes32"
        },
        {
          "internalType": "string",
          "name": "_result",
          "type": "string"
        },
        {
          "internalType": "bytes",
          "name": "_proof",
          "type": "bytes"
        }
      ],
      "name": "__callback",
      "outputs": [],
      "payable": false,
      "stateMutability": "nonpayable",
      "type": "function"
    },
    {
      "constant": false,
      "inputs": [
        {
          "internalType": "address",
          "name": "to",
          "type": "address"
        },
        {
          "internalType": "uint256",
          "name": "tokenId",
          "type": "uint256"
        },
        {
          "internalType": "string",
          "name": "tokenURI",
          "type": "string"
        }
      ],
      "name": "_mint",
      "outputs": [
        {
          "internalType": "bool",
          "name": "",
          "type": "bool"
        }
      ],
      "payable": false,
      "stateMutability": "nonpayable",
      "type": "function"
    },
    {
      "constant": false,
      "inputs": [
        {
          "internalType": "address",
          "name": "to",
          "type": "address"
        },
        {
          "internalType": "uint256",
          "name": "tokenId",
          "type": "uint256"
        }
      ],
      "name": "approve",
      "outputs": [],
      "payable": false,
      "stateMutability": "nonpayable",
      "type": "function"
    },
    {
      "constant": true,
      "inputs": [
        {
          "internalType": "address",
          "name": "owner",
          "type": "address"
        }
      ],
      "name": "balanceOf",
      "outputs": [
        {
          "internalType": "uint256",
          "name": "",
          "type": "uint256"
        }
      ],
      "payable": false,
      "stateMutability": "view",
      "type": "function"
    },
    {
      "constant": true,
      "inputs": [
        {
          "internalType": "uint256",
          "name": "tokenId",
          "type": "uint256"
        }
      ],
      "name": "getApproved",
      "outputs": [
        {
          "internalType": "address",
          "name": "",
          "type": "address"
        }
      ],
      "payable": false,
      "stateMutability": "view",
      "type": "function"
    },
    {
      "constant": true,
      "inputs": [],
      "name": "getBaseTokenURI",
      "outputs": [
        {
          "internalType": "string",
          "name": "",
          "type": "string"
        }
      ],
      "payable": false,
      "stateMutability": "view",
      "type": "function"
    },
    {
      "constant": true,
      "inputs": [],
      "name": "getName",
      "outputs": [
        {
          "internalType": "string",
          "name": "",
          "type": "string"
        }
      ],
      "payable": false,
      "stateMutability": "view",
      "type": "function"
    },
    {
      "constant": true,
      "inputs": [],
      "name": "getOwner",
      "outputs": [
        {
          "internalType": "address",
          "name": "",
          "type": "address"
        }
      ],
      "payable": false,
      "stateMutability": "view",
      "type": "function"
    },
    {
      "constant": true,
      "inputs": [],
      "name": "getSymbol",
      "outputs": [
        {
          "internalType": "string",
          "name": "",
          "type": "string"
        }
      ],
      "payable": false,
      "stateMutability": "view",
      "type": "function"
    },
    {
      "constant": true,
      "inputs": [
        {
          "internalType": "address",
          "name": "owner",
          "type": "address"
        },
        {
          "internalType": "address",
          "name": "operator",
          "type": "address"
        }
      ],
      "name": "isApprovedForAll",
      "outputs": [
        {
          "internalType": "bool",
          "name": "",
          "type": "bool"
        }
      ],
      "payable": false,
      "stateMutability": "view",
      "type": "function"
    },
    {
      "constant": true,
      "inputs": [],
      "name": "isPaused",
      "outputs": [
        {
          "internalType": "bool",
          "name": "",
          "type": "bool"
        }
      ],
      "payable": false,
      "stateMutability": "view",
      "type": "function"
    },
    {
      "constant": true,
      "inputs": [
        {
          "internalType": "uint256",
          "name": "tokenId",
          "type": "uint256"
        }
      ],
      "name": "ownerOf",
      "outputs": [
        {
          "internalType": "address",
          "name": "",
          "type": "address"
        }
      ],
      "payable": false,
      "stateMutability": "view",
      "type": "function"
    },
    {
      "constant": false,
      "inputs": [
        {
          "internalType": "address",
          "name": "from",
          "type": "address"
        },
        {
          "internalType": "address",
          "name": "to",
          "type": "address"
        },
        {
          "internalType": "uint256",
          "name": "tokenId",
          "type": "uint256"
        }
      ],
      "name": "safeTransferFrom",
      "outputs": [],
      "payable": false,
      "stateMutability": "nonpayable",
      "type": "function"
    },
    {
      "constant": false,
      "inputs": [
        {
          "internalType": "address",
          "name": "from",
          "type": "address"
        },
        {
          "internalType": "address",
          "name": "to",
          "type": "address"
        },
        {
          "internalType": "uint256",
          "name": "tokenId",
          "type": "uint256"
        },
        {
          "internalType": "bytes",
          "name": "_data",
          "type": "bytes"
        }
      ],
      "name": "safeTransferFrom",
      "outputs": [],
      "payable": false,
      "stateMutability": "nonpayable",
      "type": "function"
    },
    {
      "constant": false,
      "inputs": [
        {
          "internalType": "address",
          "name": "to",
          "type": "address"
        },
        {
          "internalType": "bool",
          "name": "approved",
          "type": "bool"
        }
      ],
      "name": "setApprovalForAll",
      "outputs": [],
      "payable": false,
      "stateMutability": "nonpayable",
      "type": "function"
    },
    {
      "constant": false,
      "inputs": [
        {
          "internalType": "bool",
          "name": "pausedVar",
          "type": "bool"
        }
      ],
      "name": "setPaused",
      "outputs": [],
      "payable": false,
      "stateMutability": "nonpayable",
      "type": "function"
    },
    {
      "constant": true,
      "inputs": [
        {
          "internalType": "bytes4",
          "name": "interfaceId",
          "type": "bytes4"
        }
      ],
      "name": "supportsInterface",
      "outputs": [
        {
          "internalType": "bool",
          "name": "",
          "type": "bool"
        }
      ],
      "payable": false,
      "stateMutability": "view",
      "type": "function"
    },
    {
      "constant": true,
      "inputs": [
        {
          "internalType": "uint256",
          "name": "index",
          "type": "uint256"
        }
      ],
      "name": "tokenByIndex",
      "outputs": [
        {
          "internalType": "uint256",
          "name": "",
          "type": "uint256"
        }
      ],
      "payable": false,
      "stateMutability": "view",
      "type": "function"
    },
    {
      "constant": true,
      "inputs": [
        {
          "internalType": "address",
          "name": "owner",
          "type": "address"
        },
        {
          "internalType": "uint256",
          "name": "index",
          "type": "uint256"
        }
      ],
      "name": "tokenOfOwnerByIndex",
      "outputs": [
        {
          "internalType": "uint256",
          "name": "",
          "type": "uint256"
        }
      ],
      "payable": false,
      "stateMutability": "view",
      "type": "function"
    },
    {
      "constant": true,
      "inputs": [
        {
          "internalType": "uint256",
          "name": "tokenId",
          "type": "uint256"
        }
      ],
      "name": "tokenURI",
      "outputs": [
        {
          "internalType": "string",
          "name": "",
          "type": "string"
        }
      ],
      "payable": false,
      "stateMutability": "view",
      "type": "function"
    },
    {
      "constant": true,
      "inputs": [],
      "name": "totalSupply",
      "outputs": [
        {
          "internalType": "uint256",
          "name": "",
          "type": "uint256"
        }
      ],
      "payable": false,
      "stateMutability": "view",
      "type": "function"
    },
    {
      "constant": false,
      "inputs": [
        {
          "internalType": "address",
          "name": "from",
          "type": "address"
        },
        {
          "internalType": "address",
          "name": "to",
          "type": "address"
        },
        {
          "internalType": "uint256",
          "name": "tokenId",
          "type": "uint256"
        }
      ],
      "name": "transferFrom",
      "outputs": [],
      "payable": false,
      "stateMutability": "nonpayable",
      "type": "function"
    },
    {
      "constant": false,
      "inputs": [
        {
          "internalType": "address",
          "name": "newOwner",
          "type": "address"
        }
      ],
      "name": "transferOwnership",
      "outputs": [],
      "payable": false,
      "stateMutability": "nonpayable",
      "type": "function"
    },
    {
      "constant": false,
      "inputs": [
        {
          "internalType": "uint256[2]",
          "name": "a",
          "type": "uint256[2]"
        },
        {
          "internalType": "uint256[2][2]",
          "name": "b",
          "type": "uint256[2][2]"
        },
        {
          "internalType": "uint256[2]",
          "name": "c",
          "type": "uint256[2]"
        },
        {
          "internalType": "uint256[2]",
          "name": "input",
          "type": "uint256[2]"
        }
      ],
      "name": "verifyTx",
      "outputs": [
        {
          "internalType": "bool",
          "name": "r",
          "type": "bool"
        }
      ],
      "payable": false,
      "stateMutability": "nonpayable",
      "type": "function"
    },
    {
      "constant": false,
      "inputs": [
        {
          "internalType": "bytes32",
          "name": "hashKey",
          "type": "bytes32"
        }
      ],
      "name": "getSolutionFromHash",
      "outputs": [
        {
          "internalType": "bool",
          "name": "",
          "type": "bool"
        }
      ],
      "payable": false,
      "stateMutability": "nonpayable",
      "type": "function"
    },
    {
      "constant": false,
      "inputs": [
        {
          "internalType": "uint256",
          "name": "index",
          "type": "uint256"
        },
        {
          "internalType": "address",
          "name": "sender",
          "type": "address"
        },
        {
          "internalType": "uint256",
          "name": "tokenId",
          "type": "uint256"
        },
        {
          "internalType": "uint256[2]",
          "name": "a",
          "type": "uint256[2]"
        },
        {
          "internalType": "uint256[2][2]",
          "name": "b",
          "type": "uint256[2][2]"
        },
        {
          "internalType": "uint256[2]",
          "name": "c",
          "type": "uint256[2]"
        },
        {
          "internalType": "uint256[2]",
          "name": "inputs",
          "type": "uint256[2]"
        }
      ],
      "name": "addSolutions",
      "outputs": [],
      "payable": false,
      "stateMutability": "nonpayable",
      "type": "function"
    },
    {
      "constant": false,
      "inputs": [
        {
          "internalType": "address",
          "name": "to",
          "type": "address"
        },
        {
          "internalType": "uint256",
          "name": "tokenId",
          "type": "uint256"
        },
        {
          "internalType": "string",
          "name": "tokenURI",
          "type": "string"
        },
        {
          "internalType": "uint256",
          "name": "index",
          "type": "uint256"
        },
        {
          "internalType": "uint256[2]",
          "name": "a",
          "type": "uint256[2]"
        },
        {
          "internalType": "uint256[2][2]",
          "name": "b",
          "type": "uint256[2][2]"
        },
        {
          "internalType": "uint256[2]",
          "name": "c",
          "type": "uint256[2]"
        },
        {
          "internalType": "uint256[2]",
          "name": "inputs",
          "type": "uint256[2]"
        }
      ],
      "name": "mintNewNFT",
      "outputs": [],
      "payable": false,
      "stateMutability": "nonpayable",
      "type": "function"
    }
  ],
  "bytecode": "0x60806040523480156200001157600080fd5b50604051620051a0380380620051a0833981810160405260408110156200003757600080fd5b81019080805160405193929190846401000000008211156200005857600080fd5b838201915060208201858111156200006f57600080fd5b82518660018202830111640100000000821117156200008d57600080fd5b8083526020830192505050908051906020019080838360005b83811015620000c3578082015181840152602081019050620000a6565b50505050905090810190601f168015620000f15780820380516001836020036101000a031916815260200191505b50604052602001805160405193929190846401000000008211156200011557600080fd5b838201915060208201858111156200012c57600080fd5b82518660018202830111640100000000821117156200014a57600080fd5b8083526020830192505050908051906020019080838360005b838110156200018057808201518184015260208101905062000163565b50505050905090810190601f168015620001ae5780820380516001836020036101000a031916815260200191505b50604052505050818181816040518060600160405280603f815260200162005161603f9139336000806101000a81548173ffffffffffffffffffffffffffffffffffffffff021916908373ffffffffffffffffffffffffffffffffffffffff1602179055507f9e38ac15fb6f429cb4c1d68a79943e344c4ce37b43debdea3555daa570f5361033604051808273ffffffffffffffffffffffffffffffffffffffff1673ffffffffffffffffffffffffffffffffffffffff16815260200191505060405180910390a160008060146101000a81548160ff021916908315150217905550620002a86301ffc9a760e01b6200034860201b60201c565b620002c06380ac58cd60e01b6200034860201b60201c565b620002d863780e9d6360e01b6200034860201b60201c565b82600f9080519060200190620002f092919062000451565b5081601090805190602001906200030992919062000451565b5080601190805190602001906200032292919062000451565b506200033b635b5e139f60e01b6200034860201b60201c565b5050505050505062000500565b63ffffffff60e01b817bffffffffffffffffffffffffffffffffffffffffffffffffffffffff19161415620003e5576040517f08c379a000000000000000000000000000000000000000000000000000000000815260040180806020018281038252601b8152602001807f6572726f7220696e205f7265676973746572496e74657266616365000000000081525060200191505060405180910390fd5b6001806000837bffffffffffffffffffffffffffffffffffffffffffffffffffffffff19167bffffffffffffffffffffffffffffffffffffffffffffffffffffffff1916815260200190815260200160002060006101000a81548160ff02191690831515021790555050565b828054600181600116156101000203166002900490600052602060002090601f016020900481019282601f106200049457805160ff1916838001178555620004c5565b82800160010185558215620004c5579182015b82811115620004c4578251825591602001919060010190620004a7565b5b509050620004d49190620004d8565b5090565b620004fd91905b80821115620004f9576000816000905550600101620004df565b5090565b90565b614c5180620005106000396000f3fe608060405234801561001057600080fd5b50600436106101c45760003560e01c80634f6ccce7116100f9578063b187bd2611610097578063bdc32be011610071578063bdc32be0146110e3578063c87b56dd14611166578063e985e9c51461120d578063f2fde38b14611289576101c4565b8063b187bd2614610e27578063b88d4fde14610e49578063bd48e77c14610f4e576101c4565b806370a08231116100d357806370a0823114610c38578063893d20e814610c90578063a22cb46514610cda578063a987d4c614610d2a576101c4565b80634f6ccce714610a0f578063621e9ec014610a515780636352211e14610bca576101c4565b80631f26716a116101665780632f745c59116101405780632f745c59146105b757806338bbfa501461061957806342842e0e146107755780634ce1ca68146107e3576101c4565b80631f26716a1461043e57806323b872dd1461048457806327dc297e146104f2576101c4565b806315070401116101a257806315070401146102ea57806316c38b3c1461036d57806317d7de7c1461039d57806318160ddd14610420576101c4565b806301ffc9a7146101c9578063081812fc1461022e578063095ea7b31461029c575b600080fd5b610214600480360360208110156101df57600080fd5b8101908080357bffffffffffffffffffffffffffffffffffffffffffffffffffffffff191690602001909291905050506112cd565b604051808215151515815260200191505060405180910390f35b61025a6004803603602081101561024457600080fd5b8101908080359060200190929190505050611335565b604051808273ffffffffffffffffffffffffffffffffffffffff1673ffffffffffffffffffffffffffffffffffffffff16815260200191505060405180910390f35b6102e8600480360360408110156102b257600080fd5b81019080803573ffffffffffffffffffffffffffffffffffffffff169060200190929190803590602001909291905050506113ed565b005b6102f26115d7565b6040518080602001828103825283818151815260200191508051906020019080838360005b83811015610332578082015181840152602081019050610317565b50505050905090810190601f16801561035f5780820380516001836020036101000a031916815260200191505b509250505060405180910390f35b61039b6004803603602081101561038357600080fd5b81019080803515159060200190929190505050611679565b005b6103a561173b565b6040518080602001828103825283818151815260200191508051906020019080838360005b838110156103e55780820151818401526020810190506103ca565b50505050905090810190601f1680156104125780820380516001836020036101000a031916815260200191505b509250505060405180910390f35b6104286117dd565b6040518082815260200191505060405180910390f35b61046a6004803603602081101561045457600080fd5b81019080803590602001909291905050506117ea565b604051808215151515815260200191505060405180910390f35b6104f06004803603606081101561049a57600080fd5b81019080803573ffffffffffffffffffffffffffffffffffffffff169060200190929190803573ffffffffffffffffffffffffffffffffffffffff16906020019092919080359060200190929190505050611817565b005b6105b56004803603604081101561050857600080fd5b81019080803590602001909291908035906020019064010000000081111561052f57600080fd5b82018360208201111561054157600080fd5b8035906020019184600183028401116401000000008311171561056357600080fd5b91908080601f016020809104026020016040519081016040528093929190818152602001838380828437600081840152601f19601f8201169050808301925050505050505091929192905050506118a3565b005b610603600480360360408110156105cd57600080fd5b81019080803573ffffffffffffffffffffffffffffffffffffffff169060200190929190803590602001909291905050506118e6565b6040518082815260200191505060405180910390f35b6107736004803603606081101561062f57600080fd5b81019080803590602001909291908035906020019064010000000081111561065657600080fd5b82018360208201111561066857600080fd5b8035906020019184600183028401116401000000008311171561068a57600080fd5b91908080601f016020809104026020016040519081016040528093929190818152602001838380828437600081840152601f19601f820116905080830192505050505050509192919290803590602001906401000000008111156106ed57600080fd5b8201836020820111156106ff57600080fd5b8035906020019184600183028401116401000000008311171561072157600080fd5b91908080601f016020809104026020016040519081016040528093929190818152602001838380828437600081840152601f19601f8201169050808301925050505050505091929192905050506119a5565b005b6107e16004803603606081101561078b57600080fd5b81019080803573ffffffffffffffffffffffffffffffffffffffff169060200190929190803573ffffffffffffffffffffffffffffffffffffffff169060200190929190803590602001909291905050506119aa565b005b610a0d60048036036101c08110156107fa57600080fd5b81019080803573ffffffffffffffffffffffffffffffffffffffff169060200190929190803590602001909291908035906020019064010000000081111561084157600080fd5b82018360208201111561085357600080fd5b8035906020019184600183028401116401000000008311171561087557600080fd5b91908080601f016020809104026020016040519081016040528093929190818152602001838380828437600081840152601f19601f8201169050808301925050505050505091929192908035906020019092919080604001906002806020026040519081016040528092919082600260200280828437600081840152601f19601f82011690508083019250505050505091929192908060800190600280602002604051908101604052809291906000905b8282101561097a578382604002016002806020026040519081016040528092919082600260200280828437600081840152601f19601f82011690508083019250505050505081526020019060010190610926565b50505050919291929080604001906002806020026040519081016040528092919082600260200280828437600081840152601f19601f820116905080830192505050505050919291929080604001906002806020026040519081016040528092919082600260200280828437600081840152601f19601f82011690508083019250505050505091929192905050506119ca565b005b610a3b60048036036020811015610a2557600080fd5b8101908080359060200190929190505050611b75565b6040518082815260200191505060405180910390f35b610bb06004803603610140811015610a6857600080fd5b8101908080604001906002806020026040519081016040528092919082600260200280828437600081840152601f19601f82011690508083019250505050505091929192908060800190600280602002604051908101604052809291906000905b82821015610b1d578382604002016002806020026040519081016040528092919082600260200280828437600081840152601f19601f82011690508083019250505050505081526020019060010190610ac9565b50505050919291929080604001906002806020026040519081016040528092919082600260200280828437600081840152601f19601f820116905080830192505050505050919291929080604001906002806020026040519081016040528092919082600260200280828437600081840152601f19601f8201169050808301925050505050509192919290505050611bf5565b604051808215151515815260200191505060405180910390f35b610bf660048036036020811015610be057600080fd5b8101908080359060200190929190505050611e3c565b604051808273ffffffffffffffffffffffffffffffffffffffff1673ffffffffffffffffffffffffffffffffffffffff16815260200191505060405180910390f35b610c7a60048036036020811015610c4e57600080fd5b81019080803573ffffffffffffffffffffffffffffffffffffffff169060200190929190505050611f31565b6040518082815260200191505060405180910390f35b610c98612023565b604051808273ffffffffffffffffffffffffffffffffffffffff1673ffffffffffffffffffffffffffffffffffffffff16815260200191505060405180910390f35b610d2860048036036040811015610cf057600080fd5b81019080803573ffffffffffffffffffffffffffffffffffffffff16906020019092919080351515906020019092919050505061204c565b005b610e0d60048036036060811015610d4057600080fd5b81019080803573ffffffffffffffffffffffffffffffffffffffff1690602001909291908035906020019092919080359060200190640100000000811115610d8757600080fd5b820183602082011115610d9957600080fd5b80359060200191846001830284011164010000000083111715610dbb57600080fd5b91908080601f016020809104026020016040519081016040528093929190818152602001838380828437600081840152601f19601f8201169050808301925050505050505091929192905050506121d2565b604051808215151515815260200191505060405180910390f35b610e2f612297565b604051808215151515815260200191505060405180910390f35b610f4c60048036036080811015610e5f57600080fd5b81019080803573ffffffffffffffffffffffffffffffffffffffff169060200190929190803573ffffffffffffffffffffffffffffffffffffffff1690602001909291908035906020019092919080359060200190640100000000811115610ec657600080fd5b820183602082011115610ed857600080fd5b80359060200191846001830284011164010000000083111715610efa57600080fd5b91908080601f016020809104026020016040519081016040528093929190818152602001838380828437600081840152601f19601f8201169050808301925050505050505091929192905050506122ad565b005b6110e160048036036101a0811015610f6557600080fd5b8101908080359060200190929190803573ffffffffffffffffffffffffffffffffffffffff1690602001909291908035906020019092919080604001906002806020026040519081016040528092919082600260200280828437600081840152601f19601f82011690508083019250505050505091929192908060800190600280602002604051908101604052809291906000905b8282101561104e578382604002016002806020026040519081016040528092919082600260200280828437600081840152601f19601f82011690508083019250505050505081526020019060010190610ffa565b50505050919291929080604001906002806020026040519081016040528092919082600260200280828437600081840152601f19601f820116905080830192505050505050919291929080604001906002806020026040519081016040528092919082600260200280828437600081840152601f19601f820116905080830192505050505050919291929050505061233c565b005b6110eb6125ac565b6040518080602001828103825283818151815260200191508051906020019080838360005b8381101561112b578082015181840152602081019050611110565b50505050905090810190601f1680156111585780820380516001836020036101000a031916815260200191505b509250505060405180910390f35b6111926004803603602081101561117c57600080fd5b810190808035906020019092919050505061264e565b6040518080602001828103825283818151815260200191508051906020019080838360005b838110156111d25780820151818401526020810190506111b7565b50505050905090810190601f1680156111ff5780820380516001836020036101000a031916815260200191505b509250505060405180910390f35b61126f6004803603604081101561122357600080fd5b81019080803573ffffffffffffffffffffffffffffffffffffffff169060200190929190803573ffffffffffffffffffffffffffffffffffffffff16906020019092919050505061277e565b604051808215151515815260200191505060405180910390f35b6112cb6004803603602081101561129f57600080fd5b81019080803573ffffffffffffffffffffffffffffffffffffffff169060200190929190505050612812565b005b600060016000837bffffffffffffffffffffffffffffffffffffffffffffffffffffffff19167bffffffffffffffffffffffffffffffffffffffffffffffffffffffff1916815260200190815260200160002060009054906101000a900460ff169050919050565b600061134082612992565b6113b2576040517f08c379a000000000000000000000000000000000000000000000000000000000815260040180806020018281038252601e8152602001807f54686520676976656e20746f6b656e20646f6573206e6f74206578697374000081525060200191505060405180910390fd5b6003600083815260200190815260200160002060009054906101000a900473ffffffffffffffffffffffffffffffffffffffff169050919050565b6113f681611e3c565b73ffffffffffffffffffffffffffffffffffffffff168273ffffffffffffffffffffffffffffffffffffffff16141561147a576040517f08c379a0000000000000000000000000000000000000000000000000000000008152600401808060200182810382526039815260200180614bb26039913960400191505060405180910390fd5b3373ffffffffffffffffffffffffffffffffffffffff16611499612023565b73ffffffffffffffffffffffffffffffffffffffff1614806114c957506114c86114c282611e3c565b3361277e565b5b61151e576040517f08c379a0000000000000000000000000000000000000000000000000000000008152600401808060200182810382526029815260200180614a636029913960400191505060405180910390fd5b816003600083815260200190815260200160002060006101000a81548173ffffffffffffffffffffffffffffffffffffffff021916908373ffffffffffffffffffffffffffffffffffffffff160217905550808273ffffffffffffffffffffffffffffffffffffffff1661159183611e3c565b73ffffffffffffffffffffffffffffffffffffffff167f8c5be1e5ebec7d5bd14f71427d1e84f3dd0314c0f7b2291e5b200ac8c7c3b92560405160405180910390a45050565b606060108054600181600116156101000203166002900480601f01602080910402602001604051908101604052809291908181526020018280546001816001161561010002031660029004801561166f5780601f106116445761010080835404028352916020019161166f565b820191906000526020600020905b81548152906001019060200180831161165257829003601f168201915b5050505050905090565b6000809054906101000a900473ffffffffffffffffffffffffffffffffffffffff1673ffffffffffffffffffffffffffffffffffffffff163373ffffffffffffffffffffffffffffffffffffffff161461171e576040517f08c379a0000000000000000000000000000000000000000000000000000000008152600401808060200182810382526032815260200180614a8c6032913960400191505060405180910390fd5b80600060146101000a81548160ff02191690831515021790555050565b6060600f8054600181600116156101000203166002900480601f0160208091040260200160405190810160405280929190818152602001828054600181600116156101000203166002900480156117d35780601f106117a8576101008083540402835291602001916117d3565b820191906000526020600020905b8154815290600101906020018083116117b657829003601f168201915b5050505050905090565b6000600880549050905090565b600060136000838152602001908152602001600020600d0160009054906101000a900460ff169050919050565b6118213382612a04565b611893576040517f08c379a000000000000000000000000000000000000000000000000000000000815260040180806020018281038252601a8152602001807f6973417070726f7665644f724f776e6572206e6f74207472756500000000000081525060200191505060405180910390fd5b61189e838383612a99565b505050565b6118e2828260006040519080825280601f01601f1916602001820160405280156118dc5781602001600182028038833980820191505090505b506119a5565b5050565b60006118f183611f31565b8210611948576040517f08c379a0000000000000000000000000000000000000000000000000000000008152600401808060200182810382526031815260200180614b816031913960400191505060405180910390fd5b600660008473ffffffffffffffffffffffffffffffffffffffff1673ffffffffffffffffffffffffffffffffffffffff168152602001908152602001600020828154811061199257fe5b9060005260206000200154905092915050565b505050565b6119c5838383604051806020016040528060008152506122ad565b505050565b6119d98589898787878761233c565b60006002868960405160200180838152602001828152602001925050506040516020818303038152906040526040518082805190602001908083835b60208310611a385780518252602082019150602081019050602083039250611a15565b6001836020036101000a038019825116818451168082178552505050505050905001915050602060405180830381855afa158015611a7a573d6000803e3d6000fd5b5050506040513d6020811015611a8f57600080fd5b81019080805190602001909291905050509050600073ffffffffffffffffffffffffffffffffffffffff166013600083815260200190815260200160002060010160009054906101000a900473ffffffffffffffffffffffffffffffffffffffff1673ffffffffffffffffffffffffffffffffffffffff161415611b5e576040517f08c379a0000000000000000000000000000000000000000000000000000000008152600401808060200182810382526038815260200180614b496038913960400191505060405180910390fd5b611b698989896121d2565b50505050505050505050565b6000611b7f6117dd565b8210611bd6576040517f08c379a000000000000000000000000000000000000000000000000000000000815260040180806020018281038252602f815260200180614b1a602f913960400191505060405180910390fd5b60088281548110611be357fe5b90600052602060002001549050919050565b6000611bff614630565b604051806040016040528087600060028110611c1757fe5b6020020151815260200187600160028110611c2e57fe5b602002015181525081600001819052506040518060400160405280604051806040016040528088600060028110611c6157fe5b6020020151600060028110611c7257fe5b6020020151815260200188600060028110611c8957fe5b6020020151600160028110611c9a57fe5b60200201518152508152602001604051806040016040528088600160028110611cbf57fe5b6020020151600060028110611cd057fe5b6020020151815260200188600160028110611ce757fe5b6020020151600160028110611cf857fe5b60200201518152508152508160200181905250604051806040016040528085600060028110611d2357fe5b6020020151815260200185600160028110611d3a57fe5b6020020151815250816040018190525060606002604051908082528060200260200182016040528015611d7c5781602001602082028038833980820191505090505b50905060008090505b6002811015611dc457848160028110611d9a57fe5b6020020151828281518110611dab57fe5b6020026020010181815250508080600101915050611d85565b506000611dd18284612abd565b1415611e2d577f3f3cfdb26fb5f9f1786ab4f1a1f9cd4c0b5e726cbdfc26e495261731aad44e39604051808060200182810382526022815260200180614abe6022913960400191505060405180910390a1600192505050611e34565b6000925050505b949350505050565b60008073ffffffffffffffffffffffffffffffffffffffff166002600084815260200190815260200160002060009054906101000a900473ffffffffffffffffffffffffffffffffffffffff1673ffffffffffffffffffffffffffffffffffffffff161415611ef6576040517f08c379a00000000000000000000000000000000000000000000000000000000081526004018080602001828103825260278152602001806149d46027913960400191505060405180910390fd5b6002600083815260200190815260200160002060009054906101000a900473ffffffffffffffffffffffffffffffffffffffff169050919050565b60008073ffffffffffffffffffffffffffffffffffffffff168273ffffffffffffffffffffffffffffffffffffffff161415611fd5576040517f08c379a00000000000000000000000000000000000000000000000000000000081526004018080602001828103825260158152602001807f496e76616c6964206f776e65722061646472657373000000000000000000000081525060200191505060405180910390fd5b61201c600460008473ffffffffffffffffffffffffffffffffffffffff1673ffffffffffffffffffffffffffffffffffffffff168152602001908152602001600020612c2f565b9050919050565b60008060009054906101000a900473ffffffffffffffffffffffffffffffffffffffff16905090565b3373ffffffffffffffffffffffffffffffffffffffff168273ffffffffffffffffffffffffffffffffffffffff1614156120d1576040517f08c379a00000000000000000000000000000000000000000000000000000000081526004018080602001828103825260308152602001806149fb6030913960400191505060405180910390fd5b80600560003373ffffffffffffffffffffffffffffffffffffffff1673ffffffffffffffffffffffffffffffffffffffff16815260200190815260200160002060008473ffffffffffffffffffffffffffffffffffffffff1673ffffffffffffffffffffffffffffffffffffffff16815260200190815260200160002060006101000a81548160ff0219169083151502179055508173ffffffffffffffffffffffffffffffffffffffff163373ffffffffffffffffffffffffffffffffffffffff167f17307eab39ab6107e8899845ad3d59bd9653f200f220920489ca2b5937696c3183604051808215151515815260200191505060405180910390a35050565b60008060009054906101000a900473ffffffffffffffffffffffffffffffffffffffff1673ffffffffffffffffffffffffffffffffffffffff163373ffffffffffffffffffffffffffffffffffffffff1614612279576040517f08c379a0000000000000000000000000000000000000000000000000000000008152600401808060200182810382526032815260200180614a8c6032913960400191505060405180910390fd5b6122838484612c3d565b61228c83612c5e565b600190509392505050565b60008060149054906101000a900460ff16905090565b6122b8848484611817565b6122c484848484612d1c565b612336576040517f08c379a000000000000000000000000000000000000000000000000000000000815260040180806020018281038252601d8152602001807f6572726f722063616e6e6f7420736166655472616e7366657246726f6d00000081525060200191505060405180910390fd5b50505050565b600061234a85858585611bf5565b905060006002898860405160200180838152602001828152602001925050506040516020818303038152906040526040518082805190602001908083835b602083106123ab5780518252602082019150602081019050602083039250612388565b6001836020036101000a038019825116818451168082178552505050505050905001915050602060405180830381855afa1580156123ed573d6000803e3d6000fd5b5050506040513d602081101561240257600080fd5b8101908080519060200190929190505050905061241d614663565b6040518061012001604052808b81526020018a73ffffffffffffffffffffffffffffffffffffffff168152602001898152602001888152602001878152602001868152602001858152602001841515815260200183815250905080601360008481526020019081526020016000206000820151816000015560208201518160010160006101000a81548173ffffffffffffffffffffffffffffffffffffffff021916908373ffffffffffffffffffffffffffffffffffffffff160217905550604082015181600201556060820151816003019060026124fd9291906146e2565b50608082015181600501906002612515929190614722565b5060a08201518160090190600261252d9291906146e2565b5060c082015181600b019060026125459291906146e2565b5060e082015181600d0160006101000a81548160ff02191690831515021790555061010082015181600e01559050507f515e6f06756d8ff49c0a3b97530a4e50e728824dc7e4878408a433a3cd258c5260405160405180910390a150505050505050505050565b606060118054600181600116156101000203166002900480601f0160208091040260200160405190810160405280929190818152602001828054600181600116156101000203166002900480156126445780601f1061261957610100808354040283529160200191612644565b820191906000526020600020905b81548152906001019060200180831161262757829003601f168201915b5050505050905090565b606061265982612992565b6126cb576040517f08c379a000000000000000000000000000000000000000000000000000000000815260040180806020018281038252601d8152602001807f6572726f7220746f6b656e55524920646f6573206e6f7420657869737400000081525060200191505060405180910390fd5b601260008381526020019081526020016000208054600181600116156101000203166002900480601f0160208091040260200160405190810160405280929190818152602001828054600181600116156101000203166002900480156127725780601f1061274757610100808354040283529160200191612772565b820191906000526020600020905b81548152906001019060200180831161275557829003601f168201915b50505050509050919050565b6000600560008473ffffffffffffffffffffffffffffffffffffffff1673ffffffffffffffffffffffffffffffffffffffff16815260200190815260200160002060008373ffffffffffffffffffffffffffffffffffffffff1673ffffffffffffffffffffffffffffffffffffffff16815260200190815260200160002060009054906101000a900460ff16905092915050565b6000809054906101000a900473ffffffffffffffffffffffffffffffffffffffff1673ffffffffffffffffffffffffffffffffffffffff163373ffffffffffffffffffffffffffffffffffffffff16146128b7576040517f08c379a0000000000000000000000000000000000000000000000000000000008152600401808060200182810382526032815260200180614a8c6032913960400191505060405180910390fd5b600073ffffffffffffffffffffffffffffffffffffffff168173ffffffffffffffffffffffffffffffffffffffff161461298f57806000806101000a81548173ffffffffffffffffffffffffffffffffffffffff021916908373ffffffffffffffffffffffffffffffffffffffff1602179055507f9e38ac15fb6f429cb4c1d68a79943e344c4ce37b43debdea3555daa570f5361081604051808273ffffffffffffffffffffffffffffffffffffffff1673ffffffffffffffffffffffffffffffffffffffff16815260200191505060405180910390a15b50565b6000806002600084815260200190815260200160002060009054906101000a900473ffffffffffffffffffffffffffffffffffffffff169050600073ffffffffffffffffffffffffffffffffffffffff168173ffffffffffffffffffffffffffffffffffffffff161415915050919050565b600080612a1083611e3c565b90508073ffffffffffffffffffffffffffffffffffffffff168473ffffffffffffffffffffffffffffffffffffffff161480612a7f57508373ffffffffffffffffffffffffffffffffffffffff16612a6784611335565b73ffffffffffffffffffffffffffffffffffffffff16145b80612a905750612a8f818561277e565b5b91505092915050565b612aa4838383612f05565b612aae838261318b565b612ab88282613329565b505050565b6000807f30644e72e131a029b85045b68181585d2833e84879b9709143e1f593f00000019050612aeb614772565b612af36133f0565b9050806080015151600186510114612b0a57600080fd5b612b126147b9565b6040518060400160405280600081526020016000815250905060008090505b8651811015612ba85783878281518110612b4757fe5b602002602001015110612b5957600080fd5b612b9982612b9485608001516001850181518110612b7357fe5b60200260200101518a8581518110612b8757fe5b602002602001015161383d565b6138d1565b91508080600101915050612b31565b50612bcb818360800151600081518110612bbe57fe5b60200260200101516138d1565b9050612c1185600001518660200151612be384613984565b8560400151612bf58a60400151613984565b8760600151612c078960000151613984565b8960200151613a1e565b612c215760019350505050612c29565b600093505050505b92915050565b600081600001549050919050565b612c478282613b82565b612c518282613329565b612c5a81613d10565b5050565b612c6781612992565b612cd9576040517f08c379a00000000000000000000000000000000000000000000000000000000081526004018080602001828103825260208152602001807f54686520676976656e20746f6b656e496420646f6573206e6f7420657869737481525060200191505060405180910390fd5b612cf2612ce46125ac565b612ced83613d5c565b613e89565b601260008381526020019081526020016000209080519060200190612d189291906147d3565b5050565b6000612d3d8473ffffffffffffffffffffffffffffffffffffffff16613ecd565b612d4a5760019050612efd565b60008473ffffffffffffffffffffffffffffffffffffffff1663150b7a02338887876040518563ffffffff1660e01b8152600401808573ffffffffffffffffffffffffffffffffffffffff1673ffffffffffffffffffffffffffffffffffffffff1681526020018473ffffffffffffffffffffffffffffffffffffffff1673ffffffffffffffffffffffffffffffffffffffff16815260200183815260200180602001828103825283818151815260200191508051906020019080838360005b83811015612e25578082015181840152602081019050612e0a565b50505050905090810190601f168015612e525780820380516001836020036101000a031916815260200191505b5095505050505050602060405180830381600087803b158015612e7457600080fd5b505af1158015612e88573d6000803e3d6000fd5b505050506040513d6020811015612e9e57600080fd5b8101908080519060200190929190505050905063150b7a0260e01b7bffffffffffffffffffffffffffffffffffffffffffffffffffffffff1916817bffffffffffffffffffffffffffffffffffffffffffffffffffffffff1916149150505b949350505050565b6002600082815260200190815260200160002060009054906101000a900473ffffffffffffffffffffffffffffffffffffffff1673ffffffffffffffffffffffffffffffffffffffff168373ffffffffffffffffffffffffffffffffffffffff1614612fbc576040517f08c379a0000000000000000000000000000000000000000000000000000000008152600401808060200182810382526038815260200180614a2b6038913960400191505060405180910390fd5b600073ffffffffffffffffffffffffffffffffffffffff168273ffffffffffffffffffffffffffffffffffffffff161415613042576040517f08c379a0000000000000000000000000000000000000000000000000000000008152600401808060200182810382526032815260200180614beb6032913960400191505060405180910390fd5b61304b81613f18565b613092600460008573ffffffffffffffffffffffffffffffffffffffff1673ffffffffffffffffffffffffffffffffffffffff168152602001908152602001600020613fd6565b6130d9600460008473ffffffffffffffffffffffffffffffffffffffff1673ffffffffffffffffffffffffffffffffffffffff168152602001908152602001600020613ff9565b816002600083815260200190815260200160002060006101000a81548173ffffffffffffffffffffffffffffffffffffffff021916908373ffffffffffffffffffffffffffffffffffffffff160217905550808273ffffffffffffffffffffffffffffffffffffffff168473ffffffffffffffffffffffffffffffffffffffff167fddf252ad1be2c89b69c2b068fc378daa952ba7f163c4a11628f55a4df523b3ef60405160405180910390a4505050565b60006131e36001600660008673ffffffffffffffffffffffffffffffffffffffff1673ffffffffffffffffffffffffffffffffffffffff1681526020019081526020016000208054905061400f90919063ffffffff16565b90506000600760008481526020019081526020016000205490508181146132d0576000600660008673ffffffffffffffffffffffffffffffffffffffff1673ffffffffffffffffffffffffffffffffffffffff168152602001908152602001600020838154811061325057fe5b9060005260206000200154905080600660008773ffffffffffffffffffffffffffffffffffffffff1673ffffffffffffffffffffffffffffffffffffffff16815260200190815260200160002083815481106132a857fe5b9060005260206000200181905550816007600083815260200190815260200160002081905550505b600660008573ffffffffffffffffffffffffffffffffffffffff1673ffffffffffffffffffffffffffffffffffffffff1681526020019081526020016000208054809190600190036133229190614853565b5050505050565b600660008373ffffffffffffffffffffffffffffffffffffffff1673ffffffffffffffffffffffffffffffffffffffff168152602001908152602001600020805490506007600083815260200190815260200160002081905550600660008373ffffffffffffffffffffffffffffffffffffffff1673ffffffffffffffffffffffffffffffffffffffff1681526020019081526020016000208190806001815401808255809150509060018203906000526020600020016000909192909190915055505050565b6133f8614772565b60405180604001604052807f1936c240636390dc823e3a728e94b208eb53c6756d81da57ec3425e05d43ac1081526020017f2d70ff78e8216bf29d58923a686d9738278b8ce2fd822e197c85b09286d155668152508160000181905250604051806040016040528060405180604001604052807f2b4daf047abe2e7f0b311118c1b963b63695dc0d769cea78849604434de055bf81526020017f29c13ecb6f33dbc4b3b8a02e2e255511ce4c26a8a2f299efcc94caf2de4fce00815250815260200160405180604001604052807f1da9020008df7f549751f8a251af3b2dc4a2ad3e0870de54acaedd9fc1b47e1781526020017f25ea0d7e2b29de431b86a943db30dbf4d98f68df9ca8a9628d14d1591e817d908152508152508160200181905250604051806040016040528060405180604001604052807f011016e22ae045444f50fb80f246ec486c7e02af09132cd38c4fcf484983e4f281526020017ee83c788c2878d1d5eba3ed49b0d81e4c0487dedc3e4d1c2baab5833785b62f815250815260200160405180604001604052807f05eb89e741ed5b5d611cebf92d1ed02cd6f3311089f0d400df7d9ced5a48fd4181526020017f132a90a3b0d369ccd66e2a5ba04a935e44d8ad5dca93a76bba592a578130a9118152508152508160400181905250604051806040016040528060405180604001604052807f065f6a3323a2abffd621fc263f348eb914904b68d5897729ae34a6b9d33f085281526020017f0c3b60f59d3bd50328a04c0ff6d979199685d0526f89f6ac29d6174ce24707a2815250815260200160405180604001604052807f26e7ebce2b44efef6b6315938e33f0a8ecc82dbad635c9efa681ed85bbb5998281526020017f12e0f3721230a0f38f6c9913048d5230fd2615ef3ff7f6ee4b20dfe0bdea1a86815250815250816060018190525060036040519080825280602002602001820160405280156136de57816020015b6136cb61487f565b8152602001906001900390816136c35790505b50816080018190525060405180604001604052807f1ef8d5d70234aa3e3d8fc4e3f1ca01c703182580b581106798f05b35fd5082c081526020017f2e468046d4ae35138e2032224925d5389712e5ca5e68f4d9c1e1858e7d65602d815250816080015160008151811061374d57fe5b602002602001018190525060405180604001604052807f0cefae0e3fa6aa25a4485ab7b21d32794d3431a4e4a5ca82ea427b831534c2c981526020017f23e3d2035b70884e547638b111870f5957f58ad8068f7a21470164ad361e1e8881525081608001516001815181106137be57fe5b602002602001018190525060405180604001604052807f030ffe78ec3de150e8688db619bde78e21e894754e6be5ed83742677628b24bc81526020017f053392f88cfa9092dfbc0bd199d8159e56207779473c24fc601eff91bcd345ca815250816080015160028151811061382f57fe5b602002602001018190525090565b6138456147b9565b61384d614899565b83600001518160006003811061385f57fe5b60200201818152505083602001518160016003811061387a57fe5b602002018181525050828160026003811061389157fe5b6020020181815250506000606083608084600060076107d05a03f1905080600081146138bc576138be565bfe5b50806138c957600080fd5b505092915050565b6138d96147b9565b6138e16148bb565b8360000151816000600481106138f357fe5b60200201818152505083602001518160016004811061390e57fe5b60200201818152505082600001518160026004811061392957fe5b60200201818152505082602001518160036004811061394457fe5b602002018181525050600060608360c084600060066107d05a03f19050806000811461396f57613971565bfe5b508061397c57600080fd5b505092915050565b61398c6147b9565b60007f30644e72e131a029b85045b68181585d97816a916871ca8d3c208c16d87cfd479050600083600001511480156139c9575060008360200151145b156139ed576040518060400160405280600081526020016000815250915050613a19565b60405180604001604052808460000151815260200182856020015181613a0f57fe5b0683038152509150505b919050565b600060606004604051908082528060200260200182016040528015613a5d57816020015b613a4a61487f565b815260200190600190039081613a425790505b50905060606004604051908082528060200260200182016040528015613a9d57816020015b613a8a6148dd565b815260200190600190039081613a825790505b5090508a82600081518110613aae57fe5b60200260200101819052508882600181518110613ac757fe5b60200260200101819052508682600281518110613ae057fe5b60200260200101819052508482600381518110613af957fe5b60200260200101819052508981600081518110613b1257fe5b60200260200101819052508781600181518110613b2b57fe5b60200260200101819052508581600281518110613b4457fe5b60200260200101819052508381600381518110613b5d57fe5b6020026020010181905250613b728282614059565b9250505098975050505050505050565b613b8b81612992565b80613bc25750600073ffffffffffffffffffffffffffffffffffffffff168273ffffffffffffffffffffffffffffffffffffffff16145b15613c18576040517f08c379a000000000000000000000000000000000000000000000000000000000815260040180806020018281038252603a815260200180614ae0603a913960400191505060405180910390fd5b816002600083815260200190815260200160002060006101000a81548173ffffffffffffffffffffffffffffffffffffffff021916908373ffffffffffffffffffffffffffffffffffffffff160217905550613cb1600460008473ffffffffffffffffffffffffffffffffffffffff1673ffffffffffffffffffffffffffffffffffffffff168152602001908152602001600020613ff9565b808273ffffffffffffffffffffffffffffffffffffffff163373ffffffffffffffffffffffffffffffffffffffff167fddf252ad1be2c89b69c2b068fc378daa952ba7f163c4a11628f55a4df523b3ef60405160405180910390a45050565b6008805490506009600083815260200190815260200160002081905550600881908060018154018082558091505090600182039060005260206000200160009091929091909150555050565b60606000821415613da4576040518060400160405280600181526020017f30000000000000000000000000000000000000000000000000000000000000008152509050613e84565b600082905060005b60008214613dce578080600101915050600a8281613dc657fe5b049150613dac565b6060816040519080825280601f01601f191660200182016040528015613e035781602001600182028038833980820191505090505b50905060006001830390505b60008614613e7c57600a8681613e2157fe5b0660300160f81b82828060019003935081518110613e3b57fe5b60200101907effffffffffffffffffffffffffffffffffffffffffffffffffffffffffffff1916908160001a905350600a8681613e7457fe5b049550613e0f565b819450505050505b919050565b6060613ec583836040518060200160405280600081525060405180602001604052806000815250604051806020016040528060008152506142ae565b905092915050565b60008060007fc5d2460186f7233c927e7db2dcc703c0e500b653ca82273b7bfad8045d85a47060001b9050833f9150808214158015613f0f57506000801b8214155b92505050919050565b600073ffffffffffffffffffffffffffffffffffffffff166003600083815260200190815260200160002060009054906101000a900473ffffffffffffffffffffffffffffffffffffffff1673ffffffffffffffffffffffffffffffffffffffff1614613fd35760006003600083815260200190815260200160002060006101000a81548173ffffffffffffffffffffffffffffffffffffffff021916908373ffffffffffffffffffffffffffffffffffffffff1602179055505b50565b613fee6001826000015461400f90919063ffffffff16565b816000018190555050565b6001816000016000828254019250508190555050565b600061405183836040518060400160405280601e81526020017f536166654d6174683a207375627472616374696f6e206f766572666c6f770000815250614570565b905092915050565b6000815183511461406957600080fd5b60008351905060006006820290506060816040519080825280602002602001820160405280156140a85781602001602082028038833980820191505090505b50905060008090505b8381101561424e578681815181106140c557fe5b6020026020010151600001518260006006840201815181106140e357fe5b6020026020010181815250508681815181106140fb57fe5b60200260200101516020015182600160068402018151811061411957fe5b60200260200101818152505085818151811061413157fe5b60200260200101516000015160006002811061414957fe5b602002015182600260068402018151811061416057fe5b60200260200101818152505085818151811061417857fe5b60200260200101516000015160016002811061419057fe5b60200201518260036006840201815181106141a757fe5b6020026020010181815250508581815181106141bf57fe5b6020026020010151602001516000600281106141d757fe5b60200201518260046006840201815181106141ee57fe5b60200260200101818152505085818151811061420657fe5b60200260200101516020015160016002811061421e57fe5b602002015182600560068402018151811061423557fe5b60200260200101818152505080806001019150506140b1565b50614257614903565b60006020826020860260208601600060086107d05a03f19050806000811461427e57614280565bfe5b508061428b57600080fd5b60008260006001811061429a57fe5b602002015114159550505050505092915050565b6060808690506060869050606086905060608690506060869050606081518351855187518951010101016040519080825280601f01601f19166020018201604052801561430a5781602001600182028038833980820191505090505b509050606081905060008090506000809050600090505b885181101561438f5788818151811061433657fe5b602001015160f81c60f81b83838060010194508151811061435357fe5b60200101907effffffffffffffffffffffffffffffffffffffffffffffffffffffffffffff1916908160001a9053508080600101915050614321565b600090505b8751811015614402578781815181106143a957fe5b602001015160f81c60f81b8383806001019450815181106143c657fe5b60200101907effffffffffffffffffffffffffffffffffffffffffffffffffffffffffffff1916908160001a9053508080600101915050614394565b600090505b86518110156144755786818151811061441c57fe5b602001015160f81c60f81b83838060010194508151811061443957fe5b60200101907effffffffffffffffffffffffffffffffffffffffffffffffffffffffffffff1916908160001a9053508080600101915050614407565b600090505b85518110156144e85785818151811061448f57fe5b602001015160f81c60f81b8383806001019450815181106144ac57fe5b60200101907effffffffffffffffffffffffffffffffffffffffffffffffffffffffffffff1916908160001a905350808060010191505061447a565b600090505b845181101561455b5784818151811061450257fe5b602001015160f81c60f81b83838060010194508151811061451f57fe5b60200101907effffffffffffffffffffffffffffffffffffffffffffffffffffffffffffff1916908160001a90535080806001019150506144ed565b82995050505050505050505095945050505050565b600083831115829061461d576040517f08c379a00000000000000000000000000000000000000000000000000000000081526004018080602001828103825283818151815260200191508051906020019080838360005b838110156145e25780820151818401526020810190506145c7565b50505050905090810190601f16801561460f5780820380516001836020036101000a031916815260200191505b509250505060405180910390fd5b5060008385039050809150509392505050565b604051806060016040528061464361487f565b81526020016146506148dd565b815260200161465d61487f565b81525090565b60405180610120016040528060008152602001600073ffffffffffffffffffffffffffffffffffffffff168152602001600081526020016146a2614925565b81526020016146af614947565b81526020016146bc614925565b81526020016146c9614925565b8152602001600015158152602001600080191681525090565b8260028101928215614711579160200282015b828111156147105782518255916020019190600101906146f5565b5b50905061471e9190614974565b5090565b82600280028101928215614761579160200282015b82811115614760578251829060026147509291906146e2565b5091602001919060020190614737565b5b50905061476e9190614999565b5090565b6040518060a0016040528061478561487f565b81526020016147926148dd565b815260200161479f6148dd565b81526020016147ac6148dd565b8152602001606081525090565b604051806040016040528060008152602001600081525090565b828054600181600116156101000203166002900490600052602060002090601f016020900481019282601f1061481457805160ff1916838001178555614842565b82800160010185558215614842579182015b82811115614841578251825591602001919060010190614826565b5b50905061484f9190614974565b5090565b81548183558181111561487a578183600052602060002091820191016148799190614974565b5b505050565b604051806040016040528060008152602001600081525090565b6040518060600160405280600390602082028038833980820191505090505090565b6040518060800160405280600490602082028038833980820191505090505090565b60405180604001604052806148f0614925565b81526020016148fd614925565b81525090565b6040518060200160405280600190602082028038833980820191505090505090565b6040518060400160405280600290602082028038833980820191505090505090565b60405180604001604052806002905b61495e614925565b8152602001906001900390816149565790505090565b61499691905b8082111561499257600081600090555060010161497a565b5090565b90565b6149c291905b808211156149be57600081816149b591906149c5565b5060020161499f565b5090565b90565b50600081556001016000905556fe5468657265206973206e6f206f776e657220666f722074686520676976656e20746f6b656e49646572726f7220696e20736574417070726f76616c466f72416c6c2c20746f206973206e6f74206d73672073656e64657252657175697265732066726f6d206164647265737320746f20626520746865206f776e6572206f662074686520676976656e20746f6b656e4e6f7420636f6e7472616374206f776e6572206f7220216973417070726f766564466f72416c6c28294572726f722e2e2e6f6e6c7920746865206f776e65722063616e2075736520746869732066756e6374696f6e616c6974792e5472616e73616374696f6e207375636365737366756c6c792076657269666965642e54686520746f6b656e496420616c726561647920657869737473206f722074686520676976656e206164647265737320697320696e76616c69646572726f7220746f6b656e4279496e64657820696e646578206c657373207468616e20746f74616c20737570706c79536f6c7574696f6e20646f6573206e6f74206861766520612073656e646572207468657265666f726520646f6573206e6f742065786973746572726f7220746f6b656e4f664f776e65724279496e64657820696e646578206c657373207468616e2062616c616e636554686520746f2061646472657373206973207468652063757272656e74206f776e657220666f722074686520676976656e20746f6b656e4964526571756972657320746f6b656e20746f206265207472616e73666572656420746f20612076616c69642061646472657373a265627a7a72315820b76b34de462bd6d1736564f957e77631101d3a7d6f4a0468bdcdb844c44525ee64736f6c6343000510003268747470733a2f2f73332d75732d776573742d322e616d617a6f6e6177732e636f6d2f756461636974792d626c6f636b636861696e2f63617073746f6e652f",
  "source": "pragma solidity >=0.4.21 <0.6.0;\n//pragma solidity ^0.6.4; // for generating abi using solc\nimport './ERC721Mintable.sol';\nimport './SquareVerifier.sol';\n\n// TODO define a contract call to the zokrates generated solidity contract <Verifier> or <renamedVerifier>\n\n\n// Reference https://medium.com/@andresaaap/capstone-real-estate-marketplace-project-faq-udacity-blockchain-69fe13b4c14e\n\n// TODO define another contract named SolnSquareVerifier that inherits from your ERC721Mintable class\ncontract SolnSquareVerifier is CustomERC721Token, SquareVerifier {\n\n    // TODO define a solutions struct that can hold an index & an address\n    struct solutions {\n        uint256 _index;             // what is this for\n        address _addressSender;\n        uint256 _tokenId;\n\n        // Components of proof.json\n        uint256[2] _proofA;         // input a to proof.json\n        uint256[2][2] _proofB;      // input b to proof.json\n        uint256[2] _proofC;         // input c to proof.json\n        uint256[2] _proofInputs;    // input 'inputs' to proof.json\n        bool _result;               // result of calling verifyTx\n\n        bytes32 hashUniq;           // hash used for uniqueness\n    }\n\n    // TODO define an array of the above struct\n    // ^^ according to https://knowledge.udacity.com/questions/36906 both are not needed\n\n    // TODO define a mapping to store unique solutions submitted\n    mapping (bytes32 => solutions) uniqSolutions;\n\n    function getSolutionFromHash(bytes32 hashKey) public returns(bool){\n        return uniqSolutions[hashKey]._result;\n    }\n\n    // TODO Create an event to emit when a solution is added\n    event solutionAdded();\n\n    // TODO Create a function to add the solutions to the array and emit the event\n    function addSolutions(uint256 index, address sender, uint256 tokenId, uint256[2] memory a, uint256[2][2] memory b, uint256[2] memory c, uint256[2] memory inputs) public {\n        bool calculatedResult = super.verifyTx(a, b, c, inputs);\n        //require(calculatedResult, \"Solution is not true\"); // need to be true?\n        //bytes32 calculatedHash = sha256(a, b, c, inputs, calculatedResult);\n        bytes32 calculatedHash = sha256(abi.encodePacked(index, tokenId));\n\n        solutions memory newSolution = solutions(index, sender, tokenId, a, b, c, inputs, calculatedResult, calculatedHash);\n        uniqSolutions[calculatedHash] = newSolution;\n\n        emit solutionAdded();\n    }\n\n    constructor(string memory name, string memory symbol) CustomERC721Token(name, symbol) public {\n\n    }\n\n    // TODO Create a function to mint new NFT only after the solution has been verified\n    //  - make sure the solution is unique (has not been used before)\n    //  - make sure you handle metadata as well as tokenSuplly\n    function mintNewNFT(address to, uint256 tokenId, string memory tokenURI, uint256 index, uint256[2] memory a, uint256[2][2] memory b, uint256[2] memory c, uint256[2] memory inputs) public{\n        addSolutions(index, to, tokenId, a, b, c, inputs);\n        bytes32 calculatedHash = sha256(abi.encodePacked(index, tokenId));\n        require(uniqSolutions[calculatedHash]._addressSender != address(0), \"Solution does not have a sender therefore does not exist\");\n\n        super._mint(to, tokenId, tokenURI);\n    }\n}\n\n\n\n\n\n\n\n\n\n\n\n\n\n\n\n\n\n\n\n\n\n\n\n\n\n\n",
  "sourcePath": "/Users/peyton/Documents/Nanodegrees/BlockchainDev/blockchain-developer-nanodegree/Blockchain-Capstone/eth-contracts/contracts/SolnSquareVerifier.sol",
  "compiler": {
    "name": "solc",
    "version": "0.5.16+commit.9c3226ce.Emscripten.clang"
  },
  "schemaVersion": "3.0.23",
  "updatedAt": "2020-03-20T00:28:18.233Z",
  "networkType": "ethereum",
  "devdoc": {
    "methods": {
      "isApprovedForAll(address,address)": {
        "details": "Tells whether an operator is approved by a given owner",
        "params": {
          "operator": "operator address which you want to query the approval of",
          "owner": "owner address which you want to query the approval of"
        },
        "return": "bool whether the given operator is approved by the given owner"
      },
      "setApprovalForAll(address,bool)": {
        "details": "Sets or unsets the approval of a given operator An operator is allowed to transfer all tokens of the sender on their behalf",
        "params": {
          "approved": "representing the status of the approval to be set",
          "to": "operator address to set the approval"
        }
      },
      "supportsInterface(bytes4)": {
        "details": "implement supportsInterface(bytes4) using a lookup table"
      },
      "tokenByIndex(uint256)": {
        "details": "Gets the token ID at a given index of all the tokens in this contract Reverts if the index is greater or equal to the total number of tokens",
        "params": {
          "index": "uint256 representing the index to be accessed of the tokens list"
        },
        "return": "uint256 token ID at the given index of the tokens list"
      },
      "tokenOfOwnerByIndex(address,uint256)": {
        "details": "Gets the token ID at a given index of the tokens list of the requested owner",
        "params": {
          "index": "uint256 representing the index to be accessed of the requested tokens list",
          "owner": "address owning the tokens list to be accessed"
        },
        "return": "uint256 token ID at the given index of the tokens list owned by the requested address"
      },
      "totalSupply()": {
        "details": "Gets the total amount of tokens stored by the contract",
        "return": "uint256 representing the total amount of tokens"
      }
    }
  },
  "userdoc": {
    "methods": {}
  }
}